:100000000C9472000C9493000C9493000C94930045
:100010000C9493000C9493000C9493000C94930014
:100020000C9493000C9493000C9493000C94930004
:100030000C9493000C9493000C9493000C94A317CD
:100040000C9493000C9403040C9433040C949300CC
:100050000C9490030C9493000C9493000C947002F5
:100060000C9493000C9493000C9493000C949300C4
:100070000C9493000C9493000C9493000C949300B4
:100080000C9461050C9491050C9493000C94EE046F
:100090000C9493000C9493000C9493000C94930094
:1000A0000C9493000C9493000C9493000C94930084
:1000B0000C9493000C9493000C9493000C94930074
:1000C0000C9493000C9493000C9493000C94930064
:1000D0000C9493000C9493000C9493000C94930054
:1000E0000C94930011241FBECFEFD1E2DEBFCDBF31
:1000F00000E00CBF12E0A0E0B2E0E8E0F5E300E0D1
:100100000BBF02C007900D92A432B107D9F722E0CD
:10011000A4E2B2E001C01D92A433B207E1F70E944D
:1001200083060C94821A0C940000CF93DF93CDB712
:10013000DEB788EB90E028E4FC0120830000DF912B
:10014000CF910895CF93DF93CDB7DEB78CEB90E0DE
:1001500024EAFC01208300008CEB90E0FC0180810C
:100160008823D4F700000000DF91CF910895CF934A
:10017000DF93CDB7DEB78CEB90E024E9FC01208360
:100180000000DF91CF910895CF93DF930F92CDB709
:10019000DEB789838BEB90E02981FC0120838CEB17
:1001A00090E024E8FC01208300008CEB90E0FC014F
:1001B00080818823D4F7000000000F90DF91CF9159
:1001C0000895CF93DF93CDB7DEB78CEB90E024ECAE
:1001D000FC01208300008CEB90E0FC0180818823EF
:1001E000D4F78BEB90E0FC018081DF91CF910895F3
:1001F000CF93DF93CDB7DEB78CEB90E024E8FC0122
:10020000208300008CEB90E0FC0180818823D4F7F0
:100210008BEB90E0FC018081DF91CF910895CF932B
:10022000DF930F920F92CDB7DEB789836A830E9466
:10023000A20080ED0E94C40089810E94C4008A81CE
:100240000E94C4000E94B70000000F900F90DF9141
:10025000CF9108950F931F93CF93DF9300D0CDB725
:10026000DEB78B830E94A20080ED0E94C4008B81C8
:100270000E94C4000E94A20081ED0E94C4000E945E
:10028000E100882F90E0182F00270E94F800882FA7
:1002900090E0802B912B9A8389830E94B7008981FB
:1002A0009A810F900F900F90DF91CF911F910F9136
:1002B0000895CF93DF93CDB7DEB766970FB6F89466
:1002C000DEBF0FBECDBF83E40E942A019A838983DB
:1002D00089819A8188509F4F9A83898389819A81E5
:1002E0009C01990F440B550B2F87388B498B5A8BE8
:1002F0006F85788989899A890E9460196F837887C8
:1003000089879A8720E030E043E053E46F81788565
:1003100089859A850E94B6186B8B7C8B8D8B9E8B02
:100320008B899C89AD89BE898B839C83AD83BE8379
:100330008B819C81AD81BE818B879C87AD87BE8779
:100340006B857C858D859E8566960FB6F894DEBF9D
:100350000FBECDBFDF91CF910895CF93DF93CDB77F
:10036000DEB766970FB6F894DEBF0FBECDBF85E44B
:100370000E942A019A83898389819A819C01990F1D
:10038000440B550B2F87388B498B5A8B6F85788997
:1003900089899A890E9460196F83788789879A87EB
:1003A00020E030E043E053E46F81788589859A85C9
:1003B0000E94B6186B8B7C8B8D8B9E8B8B899C8956
:1003C000AD89BE898B839C83AD83BE838B819C81E9
:1003D000AD81BE818B879C87AD87BE876B857C8511
:1003E0008D859E8566960FB6F894DEBF0FBECDBF95
:1003F000DF91CF910895CF93DF93CDB7DEB76697A6
:100400000FB6F894DEBF0FBECDBF87E40E942A016D
:100410009A83898389819A819C01990F440B550B9A
:100420002F87388B498B5A8B6F85788989899A8970
:100430000E9460196F83788789879A8720E030E06F
:1004400043E053E46F81788589859A850E94B618C8
:100450006B8B7C8B8D8B9E8B8B899C89AD89BE89A8
:100460008B839C83AD83BE838B819C81AD81BE8158
:100470008B879C87AD87BE876B857C858D859E85A8
:1004800066960FB6F894DEBF0FBECDBFDF91CF9159
:100490000895CF93DF93CDB7DEB760E08BE60E947F
:1004A0000F010000DF91CF910895CF93DF93CDB777
:1004B000DEB784E490E0FC01108285E490E0FC016A
:1004C000208185E490E02160FC0120838EE690E0AD
:1004D00021E0FC01208378940000DF91CF91089502
:1004E0001F920F920FB60F9211248F939F93CF9369
:1004F000DF93CDB7DEB7809124029091250201965B
:1005000090932502809324020000DF91CF919F9168
:100510008F910F900FBE0F901F901895CF93DF9380
:10052000CDB7DEB7EC970FB6F894DEBF0FBECDBFE8
:1005300069877A878B879C8719821A821B821C8223
:100540000E9459016D877E878F87988B2D853E8508
:100550004F85588920932A0230932B0240932C0216
:1005600050932D0280912402909125029C01990FB5
:10057000440B550B29A33AA34BA35CA369A17AA111
:100580008BA19CA10E9460196DA37EA38FA398A745
:100590008DA19EA1AFA1B8A589839A83AB83BC83AB
:1005A00086E490E0DC011C9285E390E021E0FC0110
:1005B000208310922502109224022DEB37E346E8A7
:1005C00057E369817A818B819C810E94151A69A702
:1005D0007AA78BA79CA729A53AA54BA55CA529833B
:1005E0003A834B835C838091260290912702A091ED
:1005F0002802B0912902898B9A8BAB8BBC8B80919E
:100600002A0290912B02A0912C02B0912D029C0104
:10061000AD0169897A898B899C890E9445186DA7EB
:100620007EA78FA798AB2DA53EA54FA558A92D8BCA
:100630003E8B4F8B588F29813A814B815C816D892C
:100640007E898F89988D0E94151A69AB7AAB8BAB26
:100650009CAB89A99AA9ABA9BCA9898F9A8FAB8FAA
:10066000BC8F20E030E040E050E4698D7A8D8B8DC6
:100670009C8D0E94B6186DAB7EAB8FAB98AF2DA949
:100680003EA94FA958AD2D833E834F8358872D81B6
:100690003E814F81588569857A858B859C850E942E
:1006A000451869AF7AAF8BAF9CAF89AD9AADABAD52
:1006B000BCAD89879A87AB87BC8780912A029091CD
:1006C0002B02A0912C02B0912D02809326029093D0
:1006D0002702A0932802B093290289859A85AB85C9
:1006E000BC858D8F9E8FAF8FB8A36D8D7E8D8F8DC6
:1006F00098A1EC960FB6F894DEBF0FBECDBFDF9188
:10070000CF910895CF93DF93CDB7DEB70E949500C8
:100710000E9449020E9455020000DF91CF91089586
:100720001F920F920FB60F9211240BB60F922F93B8
:100730008F939F93EF93FF93CF93DF93CDB7DEB764
:1007400088E890E0FC01808191810097D1F48AE8EB
:1007500090E0FC0180819181009799F488E091E01C
:10076000FC01208188E091E02F7DFC01208388E05E
:1007700091E0FC01208188E091E02F7EFC01208344
:1007800033C088E890E0FC0180819181009799F066
:1007900088E091E0FC01208188E091E02062FC018A
:1007A000208388E091E0FC01208188E091E02F7EA9
:1007B000FC01208319C08AE890E0FC0180819181CE
:1007C000009791F088E091E0FC01208188E091E0C1
:1007D0002F7DFC01208388E091E0FC01208188E0EE
:1007E00091E02061FC0120830000DF91CF91FF9117
:1007F000EF919F918F912F910F900BBE0F900FBE95
:100800000F901F9018951F920F920FB60F92112400
:100810000BB60F922F938F939F93EF93FF93CF93EA
:10082000DF93CDB7DEB788E890E0FC01808191814D
:100830008F3F980749F088E091E0FC01208188E033
:1008400091E02F7DFC0120830000DF91CF91FF918B
:10085000EF919F918F912F910F900BBE0F900FBE34
:100860000F901F9018951F920F920FB60F921124A0
:100870000BB60F922F938F939F93EF93FF93CF938A
:10088000DF93CDB7DEB78AE890E0FC0180819181EB
:100890008F3F980749F088E091E0FC01208188E0D3
:1008A00091E02F7EFC0120830000DF91CF91FF912A
:1008B000EF919F918F912F910F900BBE0F900FBED4
:1008C0000F901F901895CF93DF93CDB7DEB787E0D9
:1008D00091E0FC01208187E091E02062FC0120830F
:1008E00087E091E0FC01208187E091E02061FC013C
:1008F000208388E091E0FC01208188E091E02F7D59
:10090000FC01208388E091E0FC01208188E091E0F7
:100910002F7EFC01208380E890E0FC01108281E8BA
:1009200090E021E0FC01208388E890E0FC01118246
:1009300010828AE890E0FC01118210828FE690E03C
:1009400027E0FC01208380E00E94AA040000DF91E0
:10095000CF910895CF93DF930F92CDB7DEB7898300
:1009600089818C39B4F18981843609F094F58981C3
:100970008823C4F08AE890E0FC011182108289810A
:10098000682F880F770B88E890E043E053E0649F7E
:100990009001659F300D749F300D1124FC0131834F
:1009A000208317C088E890E0FC01118210828981C1
:1009B000682F880F770B8AE890E04DEF5CEF649F1B
:1009C0009001659F300D749F300D1124FC0131831F
:1009D000208300000F90DF91CF9108951F920F9216
:1009E0000FB60F9211240BB60F922F938F939F93F4
:1009F000EF93FF93CF93DF93CDB7DEB788E990E015
:100A0000FC01808191810097D1F48AE990E0FC019A
:100A100080819181009799F488E091E0FC01208128
:100A200088E091E02F77FC01208388E091E0FC01D1
:100A3000208188E091E02F7BFC01208333C088E98E
:100A400090E0FC0180819181009799F088E091E02D
:100A5000FC01208188E091E02068FC01208388E08F
:100A600091E0FC01208188E091E02F7BFC01208354
:100A700019C08AE990E0FC0180819181009791F092
:100A800088E091E0FC01208188E091E02F77FC0173
:100A9000208388E091E0FC01208188E091E02064DF
:100AA000FC0120830000DF91CF91FF91EF919F9196
:100AB0008F912F910F900BBE0F900FBE0F901F9034
:100AC00018951F920F920FB60F9211240BB60F922A
:100AD0002F938F939F93EF93FF93CF93DF93CDB794
:100AE000DEB788E990E0FC01808191818F3F980713
:100AF00049F088E091E0FC01208188E091E02F77C7
:100B0000FC0120830000DF91CF91FF91EF919F9135
:100B10008F912F910F900BBE0F900FBE0F901F90D3
:100B200018951F920F920FB60F9211240BB60F92C9
:100B30002F938F939F93EF93FF93CF93DF93CDB733
:100B4000DEB78AE990E0FC01808191818F3F9807B0
:100B500049F088E091E0FC01208188E091E02F7B62
:100B6000FC0120830000DF91CF91FF91EF919F91D5
:100B70008F912F910F900BBE0F900FBE0F901F9073
:100B80001895CF93DF93CDB7DEB787E091E0FC01F6
:100B9000208187E091E02068FC01208387E091E0DC
:100BA000FC01208187E091E02064FC01208388E043
:100BB00091E0FC01208188E091E02F77FC01208307
:100BC00088E091E0FC01208188E091E02F7BFC012E
:100BD000208380E990E0FC01108281E990E021E02F
:100BE000FC01208388E990E0FC01118210828AE9EF
:100BF00090E0FC011182108281E790E027E0FC0187
:100C0000208380E00E9408060000DF91CF910895C4
:100C10000F931F93CF93DF9300D000D000D0CDB7B8
:100C2000DEB7898389818C390CF461C0898184366F
:100C300011F00CF05CC0898188236CF18AE990E0A6
:100C4000FC01118210828981482F880F550B660B99
:100C5000770B8FEF9FEFDC019A01AB010E94031825
:100C60006A837B838C839D8304E610E020E030E080
:100C70006A817B818C819D81A90198010E94D51791
:100C8000DA01C901AC01BD0188E990E09A01FC01DB
:100C9000318320832CC088E990E0FC01118210820E
:100CA0008981482F880F550B660B770B8FEF9FEFCD
:100CB000DC019A01AB010E9403186E837F83888751
:100CC00099870CE91FEF2FEF3FEF6E817F818885B9
:100CD0009985A90198010E94D517DA01C901AC01D3
:100CE000BD018AE990E09A01FC0131832083000074
:100CF00029960FB6F894DEBF0FBECDBFDF91CF911E
:100D00001F910F910895CF93DF93CDB7DEB7C656ED
:100D1000D1090FB6F894DEBF0FBECDBF0E946D0A99
:100D20000E94CA0F1A82198281E090E09C838B8313
:100D30001E861D8680E590E0988B8F8788E691E07F
:100D40009E838D831A8A198A1C8A1B8A1E8A1D8A91
:100D5000188E1F8A18861F8281E090E09A87898703
:100D600081E090E09C878B8784E290E0DC012C910D
:100D700084E290E0206EFC01208385E290E0DC01BB
:100D80002C9185E290E0206EFC0120838DE290E0C2
:100D9000DC012C918DE290E02062FC0120838EE248
:100DA00090E0DC012C918EE290E02062FC01208337
:100DB00060C080E00E94AA0480E00E94080685E2EC
:100DC00090E0DC012C9185E290E02F77FC012083FC
:100DD00085E290E0DC012C9185E290E02066FC0148
:100DE0002083209100023091010240910202509133
:100DF00003022F8F38A349A35AA36F8D78A189A12D
:100E00009AA10E948E026BA37CA38DA39EA38BA1AB
:100E10009CA1ADA1BEA18093000290930102A0937A
:100E20000202B09303020E94A40A009779F085E2BF
:100E300090E0DC012C9185E290E02F7BFC01208387
:100E400081E090E09A8389831C821B820E94BA0A07
:100E5000009779F085E290E0DC012C9185E290E04A
:100E60002F7DFC0120831A82198281E090E09C830F
:100E70008B830E94D00A009709F49BCF88EE93E001
:100E80000E948F0F85E290E0DC012C9185E290E0DA
:100E90002068FC01208334C085E290E0DC012C91C5
:100EA00085E290E0206EFC0120830E94D00A00972A
:100EB00069F085E290E0DC012C9185E290E02F77EB
:100EC000FC0120838CE291E00E948F0F0E94A40A13
:100ED000009749F085E290E0DC012C9185E290E0FA
:100EE0002F7BFC0120830E94BA0A009749F085E21B
:100EF00090E0DC012C9185E290E02F7DFC012083C5
:100F00008D859E858130910539F20FC10E94D00AEE
:100F1000009721F01A8219821C821B820E94EB1119
:100F20009A8B898B29893A898F859889A901481BD1
:100F3000590BCA019C8B8B8B89899A890E949310CB
:100F40008091000290910102A0910202B0910302EF
:100F50008FA398A7A9A7BAA76FA178A589A59AA5D5
:100F60000E948E026BA77CA78DA79EA72BA53CA5F0
:100F70004DA55EA52093000230930102409302022A
:100F8000509303028D819E819C01990F440B550B58
:100F90002F962CAF3DAF4EAF5FAF2F972F966CAD16
:100FA0007DAD8EAD9FAD2F970E9460196FA778AB76
:100FB00089AB9AAB8091000290910102A09102024C
:100FC000B09103029C01AD016FA578A989A99AA9E6
:100FD0000E94441863966CAF7DAF8EAF9FAF63974E
:100FE00063968CAD9DADAEADBFAD63978BAB9CAB47
:100FF000ADABBEAB6BA97CA98DA99EA90E94281997
:1010000067966CAF7DAF8EAF9FAF67976596AEADBD
:10101000BFAD6597BE8BAD8B8D899E898330910561
:1010200039F034F083E20E94AA0489E10E940806A4
:101030008D899E898D3FBFEF9B0734F489E10E9423
:10104000AA0483E20E9408068B899C89883C91054A
:1010500039F034F083E20E94AA0483E20E94080679
:101060008B899C898837910569F064F08B899C890C
:10107000873C910509F034F486E10E94AA0486E1D8
:101080000E9408068B899C898C33910569F064F075
:101090008B899C898737910509F034F482E10E949D
:1010A000AA0482E10E9408068B899C8984319105FB
:1010B00069F064F08B899C898B33910509F034F4D5
:1010C0008FE00E94AA048FE00E9408068B899C8909
:1010D000009769F064F08B899C898331910509F050
:1010E00034F48CE00E94AA048CE00E9408068B89EC
:1010F0009C898B3FEFEF9E0734F48EEE0E94AA048A
:101100008EEE0E9408068B899C898C3FFFEF9F071B
:1011100064F08B899C898430910509F034F480E077
:101120000E94AA0480E00E94080689819A81813089
:10113000910509F4EBCECAC10E94D00A009721F0B4
:101140001A8219821C821B820E94EB119A8B898B56
:1011500029893A898F859889A901481B590BCA01A9
:10116000988F8F8B0E94D3139A8F898F0E94BB1503
:101170009C8F8B8F8091000290910102A0910202BE
:10118000B09103028FAB98AFA9AFBAAF6FA978AD9A
:1011900089AD9AAD0E948E026BAF7CAF8DAF9EAFD2
:1011A0002BAD3CAD4DAD5EAD2093000230930102FE
:1011B0004093020250930302809100029091010239
:1011C000A0910202B091030223968CAF9DAFAEAF07
:1011D000BFAF239723966CAD7DAD8EAD9FAD2397AA
:1011E0000E9428196B966CAF7DAF8EAF9FAF6B9747
:1011F0006996AEADBFAD6997BE8FAD8F898D9A8D63
:101200000E9493108D819E819C01990F440B550B78
:101210006F962CAF3DAF4EAF5FAF6F976F966CADD3
:101220007DAD8EAD9FAD6F970E94601927966CAF14
:101230007DAF8EAF9FAF2797809100029091010202
:10124000A0910202B09103029C01AD0127966CAD02
:101250007DAD8EAD9FAD27970E944418A3966CAFCD
:101260007DAF8EAF9FAFA397A3968CAD9DADAEAD76
:10127000BFADA3972B968CAF9DAFAEAFBFAF2B97F3
:101280002B966CAD7DAD8EAD9FAD2B970E9428192E
:10129000A7966CAF7DAF8EAF9FAFA797A596AEAD6B
:1012A000BFADA597BC8BAB8B8F89988D8B33910588
:1012B00011F00CF053C081E090E098878F838F8904
:1012C000988D8431910569F064F08F89988D8B3306
:1012D000910509F034F48FE00E94AA048FE00E9487
:1012E00008068F89988D009769F064F08F89988D32
:1012F0008331910509F034F48CE00E94AA048CE05B
:101300000E9408068F89988D8C3FBFEF9B0734F1B0
:101310008F89988D8430910509F004F580E00E9452
:10132000AA0480E00E9408068EE290E0FC01208181
:101330008EE290E02F7DDC012C9384E190E00E940E
:101340008F0F8EE290E0FC0120818EE290E020621F
:10135000DC012C9384E190E00E948F0F8F89988D9F
:101360008A35910519F014F018861F828F819885AF
:10137000009709F094C08B859C85009709F48FC075
:101380008B899C898130910539F034F082E30E9489
:10139000AA048DE20E9408068B899C8983309105FE
:1013A00039F034F082E30E94AA0488E20E94080621
:1013B0008B899C898830910539F034F082E30E9452
:1013C000AA0484E10E9408068B899C898F3FBFEFA5
:1013D0009B0734F48DE20E94AA0482E30E9408066F
:1013E0008B899C898D3FEFEF9E0734F488E20E9441
:1013F000AA0482E30E9408068B899C89883FFFEF3C
:101400009F0734F484E10E94AA0482E30E94080644
:101410008B899C8999235CF08B899C89009709F0C2
:1014200034F482E30E94AA0482E30E9408060E9428
:10143000FC0A81309105B1F480E00E94AA0480E0AA
:101440000E9408060E94BA0C80ED97E00E948F0F60
:1014500082E30E94AA0482E30E94080684EB90E0E3
:101460000E948F0F0E94E60A8130910541F482E0CC
:1014700090E09C878B8783EB95E10E9493100E94FC
:10148000E60A009761F48B859C858230910519F4FA
:101490001C861B8604C080E090E00E9493108B8520
:1014A0009C85009799F480E090E00E9493100E9440
:1014B000540F89859A8501969A8789878AE192E0F7
:1014C0009E838D8381E090E09C878B878B819C81BC
:1014D0008130910509F430CE6BCCCF93DF93CDB73B
:1014E000DEB70E9480110E947A0F0E9463040E945E
:1014F000C1050E94820387E091E0FC01208187E022
:1015000091E02E7FFC01208384E091E0FC012081AA
:1015100084E091E02D7FFC0120838AE290E0FC01D1
:1015200020818AE290E02B7FFC0120838AE290E018
:10153000FC0120818AE290E0277FFC0120837894DF
:101540000000DF91CF910895CF93DF93CDB7DEB741
:1015500083E091E0FC018081882F90E082709927E0
:10156000009719F081E090E002C080E090E0DF9108
:10157000CF910895CF93DF93CDB7DEB789E290E0A6
:10158000FC018081882F90E088709927009719F0DE
:1015900081E090E002C080E090E0DF91CF9108957B
:1015A000CF93DF93CDB7DEB789E290E0FC01808175
:1015B000882F90E084709927009719F081E090E0DF
:1015C00002C080E090E0DF91CF910895CF93DF9348
:1015D000CDB7DEB786E091E0FC018081882F90E0F6
:1015E00081709927009719F080E090E002C081E0B7
:1015F00090E0DF91CF910895CF93DF93CDB7DEB721
:10160000C854D1090FB6F894DEBF0FBECDBF0E94FB
:10161000D3139A8389830E94BB159C838B83898112
:101620009A818035910509F09CF480912E02909169
:101630002F02009769F484E190E00E948F0F81E00F
:1016400090E090932F0280932E0281E090E06CC195
:1016500089819A818A35910509F00CF49AC08091AC
:101660002E0290912F02009709F493C080E090E041
:10167000A0EAB1E48D839E83AF83B88720E030E099
:101680004AE755E46D817E818F8198850E94151A05
:1016900069A77AA78BA79CA789A59AA5ABA5BCA586
:1016A00089879A87AB87BC8720E030E040E85FE31A
:1016B00069857A858B859C850E94B11888232CF4D6
:1016C00081E090E09E878D8755C020E03FEF4FE797
:1016D00057E469857A858B859C850E94101A88233A
:1016E000D9F1D4F120E030E040E251E46D817E8117
:1016F0008F8198850E94151A6DA77EA78FA798AB3A
:101700008DA59EA5AFA5B8A989A39AA3ABA3BCA399
:1017100069A17AA18BA19CA10E942F1969AB7AAB18
:101720008BAB9CABA9A9BAA9BE87AD8710C080E9D5
:1017300091E0988B8F878F8598890197F1F7988B27
:101740008F8700008D859E8501979E878D878D856B
:101750009E85009761F719C069857A858B859C8580
:101760000E942F196DAB7EAB8FAB98AF8DA99EA950
:101770009E878D878D859E859A8B898B89899A898D
:101780000197F1F79A8B898B000010922F0210922B
:101790002E028B819C818035910509F09CF480910B
:1017A000300290913102009769F484E190E00E9448
:1017B0008F0F81E090E0909331028093300281E0BE
:1017C00090E0B2C08B819C818A35910509F00CF4C0
:1017D000A8C08091300290913102009709F4A4C012
:1017E00080E090E0A0EAB1E48B8B9C8BAD8BBE8B4C
:1017F00020E030E04AE755E46B897C898D899E8939
:101800000E94151A69AF7AAF8BAF9CAF89AD9AADC4
:10181000ABADBCAD8F8B988FA98FBA8F20E030E035
:1018200040E85FE36F89788D898D9A8D0E94B118A9
:1018300088232CF481E090E09C8F8B8F62C020E0A5
:101840003FEF4FE757E46F89788D898D9A8D0E941D
:10185000101A882309F00CF442C020E030E040E286
:1018600051E46B897C898D899E890E94151A219685
:101870006CAF7DAF8EAF9FAF219721968CAD9DADA4
:10188000AEADBFAD21978DA39EA3AFA3B8A76DA1A9
:101890007EA18FA198A50E942F1925966CAF7DAFD0
:1018A0008EAF9FAF25972396AEADBFAD2397BC8F6C
:1018B000AB8F10C080E991E09E8F8D8F8D8D9E8DB6
:1018C0000197F1F79E8F8D8F00008B8D9C8D019776
:1018D0009C8F8B8F8B8D9C8D009761F71DC06F89BE
:1018E000788D898D9A8D0E942F1929966CAF7DAFC6
:1018F0008EAF9FAF299727968EAD9FAD27979C8F70
:101900008B8F8B8D9C8D98A38F8F8F8D98A1019736
:10191000F1F798A38F8F00001092310210923002DD
:1019200003C080E090E000C0C85BDF4F0FB6F894C2
:10193000DEBF0FBECDBFDF91CF910895CF93DF9370
:10194000CDB7DEB785E290E0FC01308185E290E022
:1019500020E82327FC01208385E290E0FC01308110
:1019600085E290E020E42327FC0120830000DF9142
:10197000CF910895CF93DF93CDB7DEB78EE290E09D
:10198000FC0120818EE290E02F7DFC01208388E223
:1019900090E00E948F0F8EE290E0FC0120818EE2A9
:1019A00090E02062FC01208380E590E00E948F0F90
:1019B0008EE290E0FC0120818EE290E02F7DFC0120
:1019C000208388E290E00E948F0F8EE290E0FC017D
:1019D00020818EE290E02062FC01208386E990E085
:1019E0000E948F0F8EE290E0FC0120818EE290E059
:1019F0002F7DFC01208386E490E00E948F0F8EE211
:101A000090E0FC0120818EE290E02062FC012083C6
:101A10000000DF91CF910895CF93DF93CDB7DEB76C
:101A2000C854D1090FB6F894DEBF0FBECDBF98875A
:101A30008F83209100023091010240910202509167
:101A4000030229873A874B875C8769857A858B856E
:101A50009C850E948E026D877E878F87988B8D85EF
:101A60009E85AF85B8898093000290930102A09370
:101A70000202B09303028F8198859C01990F440B59
:101A8000550B2DA73EA74FA758AB6DA57EA58FA5DB
:101A900098A90E946019698B7A8B8B8B9C8B8091A3
:101AA000000290910102A0910202B09103029C01F8
:101AB000AD0169897A898B899C890E94441869AB38
:101AC0007AAB8BAB9CAB89A99AA9ABA9BCA98D8B2E
:101AD0009E8BAF8BB88F6D897E898F89988D0E9480
:101AE00028196DAB7EAB8FAB98AFADA9BEA9BC83F7
:101AF000AB8381E090E09A838983E0C0209100026B
:101B0000309101024091020250910302298F3A8FD5
:101B10004B8F5C8F698D7A8D8B8D9C8D0E948E0290
:101B20006D8F7E8F8F8F98A38D8D9E8DAF8DB8A179
:101B30008093000290930102A0930202B0930302EB
:101B40008F8198859C01990F440B550B29AF3AAFB3
:101B50004BAF5CAF69AD7AAD8BAD9CAD0E946019A7
:101B600069A37AA38BA39CA38091000290910102A8
:101B7000A0910202B09103029C01AD0169A17AA17A
:101B80008BA19CA10E94441821966CAF7DAF8EAFB3
:101B90009FAF219721968CAD9DADAEADBFAD219786
:101BA0008DA39EA3AFA3B8A76DA17EA18FA198A579
:101BB0000E94281925966CAF7DAF8EAF9FAF2597F9
:101BC0002396AEADBFAD2397BC83AB8320910002BB
:101BD00030910102409102025091030229A73AA7D5
:101BE0004BA75CA769A57AA58BA59CA50E9428197F
:101BF00029966CAF7DAF8EAF9FAF299727964EADDC
:101C00005FAD27975E834D838D819E810E949310E7
:101C10008B819C81009739F034F080E20E94AA0405
:101C200080EE0E9408068B819C818A30910539F0F4
:101C300034F086E20E94AA048AED0E9408068B8195
:101C40009C818431910539F034F08DE20E94AA0420
:101C500083ED0E9408068B819C81992334F480EEE9
:101C60000E94AA0480E20E9408068B819C81863F24
:101C70005FEF950734F48AED0E94AA0486E20E9481
:101C800008068B819C818C3EAFEF9A0734F483ED7C
:101C90000E94AA048DE20E9408068B819C819923F0
:101CA0006CF08B819C81009709F044F480E00E94E5
:101CB000AA0480E00E9408061A82198289819A810A
:101CC0008130910509F41ACF00000000C85BDF4F96
:101CD0000FB6F894DEBF0FBECDBFDF91CF91089550
:101CE000CF93DF93CDB7DEB7A4970FB6F894DEBFDE
:101CF0000FBECDBF9E838D8378876F831A82198232
:101D0000C0C0209100023091010240910202509126
:101D1000030229873A874B875C8769857A858B859B
:101D20009C850E948E026D877E878F87988B8D851C
:101D30009E85AF85B8898093000290930102A0939D
:101D40000202B09303028F8198859C01990F440B86
:101D5000550B298F3A8F4B8F5C8F698D7A8D8B8DC8
:101D60009C8D0E946019698B7A8B8B8B9C8B8091E8
:101D7000000290910102A0910202B09103029C0125
:101D8000AD0169897A898B899C890E9444186D8F7D
:101D90007E8F8F8F98A38D8D9E8DAF8DB8A18D8BEB
:101DA0009E8BAF8BB88F6D897E898F89988D0E94AD
:101DB000281969A37AA38BA39CA3A9A1BAA1BC8368
:101DC000AB8389819A810E9493108B819C818130A1
:101DD000910539F034F082E30E94AA048DE20E945A
:101DE00008068B819C818330910539F034F082E3C1
:101DF0000E94AA0488E20E9408068B819C81883098
:101E0000910539F034F082E30E94AA0484E10E9433
:101E100008068B819C818F3FBFEF9B0734F48DE2D6
:101E20000E94AA0482E30E9408068B819C818D3F58
:101E30002FEF920734F488E20E94AA0482E30E9402
:101E400008068B819C81883F3FEF930734F484E13F
:101E50000E94AA0482E30E9408068B819C81992338
:101E60005CF08B819C81009709F034F482E30E943E
:101E7000AA0482E30E94080689819A8101969A83C6
:101E8000898329813A818D819E81281739070CF435
:101E900038CF00000000A4960FB6F894DEBF0FBE46
:101EA000CDBFDF91CF910895CF93DF93CDB7DEB74C
:101EB00084EF91E00E948F0F68E671E082E890E085
:101EC0000E94700E82EC91E00E940C0D62EC71E0B9
:101ED00089E091E00E94700E8AE192E00E940C0D70
:101EE0006AE172E084E690E00E94700E0000DF91EB
:101EF000CF910895CF93DF93CDB7DEB780EA90E01E
:101F0000FC01108281EA90E0FC01208181EA90E0EE
:101F10002260FC0120830000DF91CF910895CF93D0
:101F2000DF9300D000D0CDB7DEB79E838D838D8147
:101F30009E8121E230E0B9010E94C117CB019C8350
:101F40008B831A82198214C089E390E0FC0180819E
:101F5000882F90E081709927009751F089E390E0F5
:101F600021E0FC01208389819A8101969A838983EB
:101F700029813A818B819C81281739072CF3000035
:101F800000000F900F900F900F900F900F90DF9127
:101F9000CF910895CF93DF93CDB7DEB781E091E085
:101FA000FC01208181E091E02062FC01208381E03E
:101FB00091E0FC01208181E091E02061FC0120831F
:101FC00083E390E0FC01208183E390E02062FC0148
:101FD000208382E091E0FC01208182E091E02F7E6D
:101FE000FC01208384E390E0FC01208184E390E005
:101FF0002F7DFC0120830000DF91CF910895CF93C6
:10200000DF9300D00F920F92CDB7DEB78D831A8287
:10201000198239C08D81082E000C990B8170992787
:102020009C838B838D8185958D838B819C8100978B
:1020300051F082E091E0FC01208182E091E0206299
:10204000FC01208309C082E091E0FC01208182E054
:1020500091E02F7DFC01208382E091E0FC01208152
:1020600082E091E02061FC01208382E091E0FC01AC
:10207000208182E091E02F7EFC01208389819A817A
:1020800001969A83898389819A818730910511F21B
:1020900008F2000000000F900F900F900F900F902B
:1020A000DF91CF910895CF93DF930F920F92CDB729
:1020B000DEB79A83898380E190E0098002C0880FAF
:1020C000991F0A94E2F70E94FF0F00000F900F90F3
:1020D000DF91CF910895CF93DF9300D0CDB7DEB7D6
:1020E00089837B836A8389810E94FF0F8A819B8118
:1020F0000E94531084E390E0FC01208184E390E08F
:102100002062FC01208384E390E0FC01208184E3D1
:1021100090E02F7DFC01208300000F900F900F9026
:10212000DF91CF910895CF93DF93CDB7DEB7A69718
:102130000FB6F894DEBF0FBECDBF9A8B898B1A8283
:102140001982CCC049895A899A01ADECBCEC0E9435
:10215000F4179C0136952795369527953695279542
:10216000C901880F991F880F991F820F931F880F2D
:10217000991F9A01281B390BC901880F991F8C5F81
:102180009D4FDC018D919C91282F89819A81BC0102
:10219000822F0E946B1089899A899C01ADECBCEC5E
:1021A0000E94F417969587959695879596958795AD
:1021B0009A8B898B80E090E0A0E8BFE38B839C83BF
:1021C000AD83BE8320E030E04AE755E46B817C813B
:1021D0008D819E810E94151A6F8B788F898F9A8FBF
:1021E0008F89988DA98DBA8D8F839887A987BA8793
:1021F00020E030E040E85FE36F81788589859A854B
:102200000E94B11888232CF481E090E09C878B8792
:1022100055C020E03FEF4FE757E46F81788589850F
:102220009A850E94101A8823D9F1D4F120E030E079
:1022300040E251E46B817C818D819E810E94151A60
:102240006B8F7C8F8D8F9E8F8B8D9C8DAD8DBE8D7A
:102250008B8B9C8BAD8BBE8B6B897C898D899E898A
:102260000E942F196F8F78A389A39AA3AF8DB8A16D
:10227000BC87AB8710C080E991E09E878D878D85F4
:102280009E850197F1F79E878D8700008B859C8541
:1022900001979C878B878B859C85009761F719C078
:1022A0006F81788589859A850E942F196BA37CA3FD
:1022B0008DA39EA3EBA1FCA1FC87EB878B859C855E
:1022C000988B8F878F8598890197F1F7988B8F87E7
:1022D000000089819A8101969A83898389819A81F4
:1022E0008330910509F00CF42DCF00000000A69674
:1022F0000FB6F894DEBF0FBECDBFDF91CF9108952A
:10230000CF93DF93CDB7DEB787E091E0FC0120816A
:1023100087E091E0277FFC01208381E290E0FC01CF
:10232000208181E290E02160FC01208382E290E044
:10233000FC01208182E290E02E7FFC01208387E077
:1023400091E0FC01208187E091E02D7FFC0120835A
:1023500081E290E0FC01208181E290E02061FC01BB
:10236000208382E290E0FC01208182E290E02F7ED7
:10237000FC01208387E091E0FC01208187E091E06F
:102380002B7FFC01208381E290E0FC01208181E22F
:1023900090E02460FC01208382E290E0FC01208137
:1023A00082E290E02B7FFC01208380EB90E0FC0137
:1023B000108281EB90E0FC01208181EB90E02160B4
:1023C000FC01208380E790E021E0FC0120830000F5
:1023D000DF91CF910895CF93DF93CDB7DEB76E979E
:1023E0000FB6F894DEBF0FBECDBF0E947912000079
:1023F00086E091E0DC018C91882F90E0887099272D
:102400000097B1F382EB90E0FC01108287E390E04B
:1024100021E0DC012C931092330210923202000072
:1024200086E091E0FC018081882F90E088709927F8
:102430000097B1F780913202909133029A83898399
:1024400089819A819C01990F440B550B2F87388BFA
:10245000498B5A8B6F85788989899A890E9460197E
:102460006B837C838D839E832FE632E143E05CE3C4
:102470006B817C818D819E810E94151A6B8B7C8B78
:102480008D8B9E8B8B899C89AD89BE898F83988724
:10249000A987BA8720E030E84BEA53E46F8178855A
:1024A00089859A850E94151A6F8B788F898F9A8FEC
:1024B0002F89388D498D5A8D2B873C874D875E87B4
:1024C0006B857C858D859E850E9428196B8F7C8FFE
:1024D0008D8F9E8F4B8D5C8D5A83498389819A8124
:1024E0006E960FB6F894DEBF0FBECDBFDF91CF91D1
:1024F0000895CF93DF93CDB7DEB7C854D1090FB697
:10250000F894DEBF0FBECDBF82E290E0DC012C91DB
:1025100082E290E02160FC01208380E090E0A0E274
:10252000B1E489839A83AB83BC832BEA3AEA4AEA13
:1025300050E469817A818B819C810E94151A6DA378
:102540007EA38FA398A78DA19EA1AFA1B8A58D83CF
:102550009E83AF83B88720E030E040E850E4698193
:102560007A818B819C810E94151A69A77AA78BA713
:102570009CA789A59AA5ABA5BCA589879A87AB8797
:10258000BC8720E030E040E85FE36D817E818F8191
:1025900098850E94B11888231CF481E08D87E8C0DB
:1025A00020E03FEF4FE757E469857A858B859C856E
:1025B0000E94101A882309F00CF49FC020E030E03C
:1025C0004AE754E469817A818B819C810E94B61824
:1025D0006DA77EA78FA798AB8DA59EA5AFA5B8A91F
:1025E0008E879F87A88BB98B20E030E04AE755E4BF
:1025F0006E857F85888999890E94151A69AB7AABA7
:102600008BAB9CAB89A99AA9ABA9BCA98A8B9B8BE4
:10261000AC8BBD8B20E030E040E85FE36A897B89CA
:102620008C899D890E94B11888232CF481E090E068
:102630009F8B8E8B57C020E03FEF4FE757E46A89AE
:102640007B898C899D890E94101A8823D9F1D4F145
:1026500020E030E040E251E46E857F8588899989E9
:102660000E94151A6DAB7EAB8FAB98AF8DA99EA95A
:10267000AFA9B8AD89A39AA3ABA3BCA369A17AA162
:102680008BA19CA10E942F1969AF7AAF8BAF9CAF31
:10269000A9ADBAADBF8BAE8B10C080E991E0998F28
:1026A000888F888D998D0197F1F7998F888F000019
:1026B0008E899F8901979F8B8E8B8E899F8900972A
:1026C00061F756C06A897B898C899D890E942F1980
:1026D00021966CAF7DAF8EAF9FAF2197EDADFEAD74
:1026E000FF8BEE8B8E899F899B8F8A8F8A8D9B8D26
:1026F0000197F1F79B8F8A8F3BC020E030E04FE7D6
:1027000053E46D817E818F8198850E94101A882301
:10271000F9F0F4F069857A858B859C850E942F19E4
:1027200025966CAF7DAF8EAF9FAF259723968EAD6C
:102730009FAD23979D8F8C8F8C8D9D8D9F8F8E8FBE
:102740008E8D9F8D0197F1F79F8F8E8F000017C0A0
:102750006D817E818F8198850E942F1929966CAF9B
:102760007DAF8EAF9FAF299726969FAD26979D8709
:102770008D8588A388A18A95F1F788A3000082E25D
:1027800090E0DC012C9182E290E02E7FFC0120831E
:102790000000C85BDF4F0FB6F894DEBF0FBECDBFA1
:1027A000DF91CF910895CF93DF93CDB7DEB76E97CA
:1027B0000FB6F894DEBF0FBECDBF0E9461140000BB
:1027C00086E091E0DC018C91882F90E0847099275D
:1027D0000097B1F382EB90E0FC01108287E390E078
:1027E00021E0DC012C93109233021092320200009F
:1027F00086E091E0FC018081882F90E08470992729
:102800000097B1F780913202909133029A838983C5
:1028100089819A819C01990F440B550B2F87388B26
:10282000498B5A8B6F85788989899A890E946019AA
:102830006B837C838D839E832FE632E143E05CE3F0
:102840006B817C818D819E810E94151A6B8B7C8BA4
:102850008D8B9E8B8B899C89AD89BE898F83988750
:10286000A987BA8720E030E84BEA53E46F81788586
:1028700089859A850E94151A6F8B788F898F9A8F18
:102880002F89388D498D5A8D2B873C874D875E87E0
:102890006B857C858D859E850E9428196B8F7C8F2A
:1028A0008D8F9E8F4B8D5C8D5A83498389819A8150
:1028B0006E960FB6F894DEBF0FBECDBFDF91CF91FD
:1028C0000895CF93DF93CDB7DEB7C854D1090FB6C3
:1028D000F894DEBF0FBECDBF82E290E0DC012C9108
:1028E00082E290E02460FC01208380E090E0A0E29E
:1028F000B1E489839A83AB83BC832BEA3AEA4AEA40
:1029000050E469817A818B819C810E94151A6DA3A4
:102910007EA38FA398A78DA19EA1AFA1B8A58D83FB
:102920009E83AF83B88720E030E040E850E46981BF
:102930007A818B819C810E94151A69A77AA78BA73F
:102940009CA789A59AA5ABA5BCA589879A87AB87C3
:10295000BC8720E030E040E85FE36D817E818F81BD
:1029600098850E94B11888231CF481E08D87E8C007
:1029700020E03FEF4FE757E469857A858B859C859A
:102980000E94101A882309F00CF49FC020E030E068
:102990004AE754E469817A818B819C810E94B61850
:1029A0006DA77EA78FA798AB8DA59EA5AFA5B8A94B
:1029B0008E879F87A88BB98B20E030E04AE755E4EB
:1029C0006E857F85888999890E94151A69AB7AABD3
:1029D0008BAB9CAB89A99AA9ABA9BCA98A8B9B8B11
:1029E000AC8BBD8B20E030E040E85FE36A897B89F7
:1029F0008C899D890E94B11888232CF481E090E095
:102A00009F8B8E8B57C020E03FEF4FE757E46A89DA
:102A10007B898C899D890E94101A8823D9F1D4F171
:102A200020E030E040E251E46E857F858889998915
:102A30000E94151A6DAB7EAB8FAB98AF8DA99EA986
:102A4000AFA9B8AD89A39AA3ABA3BCA369A17AA18E
:102A50008BA19CA10E942F1969AF7AAF8BAF9CAF5D
:102A6000A9ADBAADBF8BAE8B10C080E991E0998F54
:102A7000888F888D998D0197F1F7998F888F000045
:102A80008E899F8901979F8B8E8B8E899F89009756
:102A900061F756C06A897B898C899D890E942F19AC
:102AA00021966CAF7DAF8EAF9FAF2197EDADFEADA0
:102AB000FF8BEE8B8E899F899B8F8A8F8A8D9B8D52
:102AC0000197F1F79B8F8A8F3BC020E030E04FE702
:102AD00053E46D817E818F8198850E94101A88232E
:102AE000F9F0F4F069857A858B859C850E942F1911
:102AF00025966CAF7DAF8EAF9FAF259723968EAD99
:102B00009FAD23979D8F8C8F8C8D9D8D9F8F8E8FEA
:102B10008E8D9F8D0197F1F79F8F8E8F000017C0CC
:102B20006D817E818F8198850E942F1929966CAFC7
:102B30007DAF8EAF9FAF299726969FAD26979D8735
:102B40008D8588A388A18A95F1F788A3000082E289
:102B500090E0DC012C9182E290E02B7FFC0120834D
:102B60000000C85BDF4F0FB6F894DEBF0FBECDBFCD
:102B7000DF91CF910895CF93DF93CDB7DEB76E97F6
:102B80000FB6F894DEBF0FBECDBF0E9449160000FD
:102B900086E091E0DC018C91882F90E0827099278B
:102BA0000097B1F382EB90E0FC01108287E390E0A4
:102BB00021E0DC012C9310923302109232020000CB
:102BC00086E091E0FC018081882F90E08270992757
:102BD0000097B1F780913202909133029A838983F2
:102BE00089819A819C01990F440B550B2F87388B53
:102BF000498B5A8B6F85788989899A890E946019D7
:102C00006B837C838D839E832FE632E143E05CE31C
:102C10006B817C818D819E810E94151A6B8B7C8BD0
:102C20008D8B9E8B8B899C89AD89BE898F8398877C
:102C3000A987BA8720E030E84BEA53E46F817885B2
:102C400089859A850E94151A6F8B788F898F9A8F44
:102C50002F89388D498D5A8D2B873C874D875E870C
:102C60006B857C858D859E850E9428196B8F7C8F56
:102C70008D8F9E8F4B8D5C8D5A83498389819A817C
:102C80006E960FB6F894DEBF0FBECDBFDF91CF9129
:102C90000895CF93DF93CDB7DEB7C854D1090FB6EF
:102CA000F894DEBF0FBECDBF82E290E0DC012C9134
:102CB00082E290E02061FC01208380E090E0A0E2CD
:102CC000B1E489839A83AB83BC832BEA3AEA4AEA6C
:102CD00050E469817A818B819C810E94151A6DA3D1
:102CE0007EA38FA398A78DA19EA1AFA1B8A58D8328
:102CF0009E83AF83B88720E030E040E850E46981EC
:102D00007A818B819C810E94151A69A77AA78BA76B
:102D10009CA789A59AA5ABA5BCA589879A87AB87EF
:102D2000BC8720E030E040E85FE36D817E818F81E9
:102D300098850E94B11888231CF481E08D87E8C033
:102D400020E03FEF4FE757E469857A858B859C85C6
:102D50000E94101A882309F00CF49FC020E030E094
:102D60004AE754E469817A818B819C810E94B6187C
:102D70006DA77EA78FA798AB8DA59EA5AFA5B8A977
:102D80008E879F87A88BB98B20E030E04AE755E417
:102D90006E857F85888999890E94151A69AB7AABFF
:102DA0008BAB9CAB89A99AA9ABA9BCA98A8B9B8B3D
:102DB000AC8BBD8B20E030E040E85FE36A897B8923
:102DC0008C899D890E94B11888232CF481E090E0C1
:102DD0009F8B8E8B57C020E03FEF4FE757E46A8907
:102DE0007B898C899D890E94101A8823D9F1D4F19E
:102DF00020E030E040E251E46E857F858889998942
:102E00000E94151A6DAB7EAB8FAB98AF8DA99EA9B2
:102E1000AFA9B8AD89A39AA3ABA3BCA369A17AA1BA
:102E20008BA19CA10E942F1969AF7AAF8BAF9CAF89
:102E3000A9ADBAADBF8BAE8B10C080E991E0998F80
:102E4000888F888D998D0197F1F7998F888F000071
:102E50008E899F8901979F8B8E8B8E899F89009782
:102E600061F756C06A897B898C899D890E942F19D8
:102E700021966CAF7DAF8EAF9FAF2197EDADFEADCC
:102E8000FF8BEE8B8E899F899B8F8A8F8A8D9B8D7E
:102E90000197F1F79B8F8A8F3BC020E030E04FE72E
:102EA00053E46D817E818F8198850E94101A88235A
:102EB000F9F0F4F069857A858B859C850E942F193D
:102EC00025966CAF7DAF8EAF9FAF259723968EADC5
:102ED0009FAD23979D8F8C8F8C8D9D8D9F8F8E8F17
:102EE0008E8D9F8D0197F1F79F8F8E8F000017C0F9
:102EF0006D817E818F8198850E942F1929966CAFF4
:102F00007DAF8EAF9FAF299726969FAD26979D8761
:102F10008D8588A388A18A95F1F788A3000082E2B5
:102F200090E0DC012C9182E290E02F7EFC01208376
:102F30000000C85BDF4F0FB6F894DEBF0FBECDBFF9
:102F4000DF91CF9108951F920F920FB60F92112427
:102F50008F939F93CF93DF93CDB7DEB780913202EB
:102F600090913302019690933302809332020000D5
:102F7000DF91CF919F918F910F900FBE0F901F9077
:102F8000189597FB072E16F4009407D077FD09D00B
:102F90000E940E1807FC05D03EF4909581959F4F36
:102FA0000895709561957F4F0895052E97FB1EF447
:102FB00000940E94EC1757FD07D00E94221807FCCE
:102FC00003D04EF40C94EC17509540953095219514
:102FD0003F4F4F4F5F4F0895909580957095619545
:102FE0007F4F8F4F9F4F0895A29FB001B39FC001A5
:102FF000A39F700D811D1124911DB29F700D811D25
:103000001124911D08950E94F417A59F900DB49F5F
:10301000900DA49F800D911D11240895AA1BBB1B28
:1030200051E107C0AA1FBB1FA617B70710F0A61BC8
:10303000B70B881F991F5A95A9F780959095BC01E9
:10304000CD010895A1E21A2EAA1BBB1BFD010DC0E4
:10305000AA1FBB1FEE1FFF1FA217B307E407F50748
:1030600020F0A21BB30BE40BF50B661F771F881F24
:10307000991F1A9469F760957095809590959B01BA
:10308000AC01BD01CF0108955058BB27AA270E946B
:103090005C180C94D6190E94C81938F00E94CF19F8
:1030A00020F039F49F3F19F426F40C94C5190EF45E
:1030B000E095E7FB0C94BF19E92F0E94E71958F33C
:1030C000BA17620773078407950720F079F4A6F50D
:1030D0000C94091A0EF4E0950B2EBA2FA02D0B01BB
:1030E000B90190010C01CA01A0011124FF27591B4D
:1030F00099F0593F50F4503E68F11A16F040A22F53
:10310000232F342F4427585FF3CF469537952795C3
:10311000A795F0405395C9F77EF41F16BA0B620BC2
:10312000730B840BBAF09150A1F0FF0FBB1F661F09
:10313000771F881FC2F70EC0BA0F621F731F841F4C
:1031400048F4879577956795B795F7959E3F08F072
:10315000B0CF9395880F08F09927EE0F9795879534
:1031600008950E949B1908F481E008950E94CA18EE
:103170000C94D6190E94CF1958F00E94C81940F03B
:1031800029F45F3F29F00C94BF1951110C940A1ACD
:103190000C94C5190E94E71968F39923B1F35523DC
:1031A00091F3951B550BBB27AA276217730784075A
:1031B00038F09F5F5F4F220F331F441FAA1FA9F3F0
:1031C00035D00E2E3AF0E0E832D091505040E695DE
:1031D000001CCAF72BD0FE2F29D0660F771F881F3F
:1031E000BB1F261737074807AB07B0E809F0BB0B32
:1031F000802DBF01FF2793585F4F3AF09E3F510546
:1032000078F00C94BF190C940A1A5F3FE4F3983ECF
:10321000D4F3869577956795B795F7959F5FC9F72E
:10322000880F911D9695879597F90895E1E0660FAF
:10323000771F881FBB1F621773078407BA0720F028
:10324000621B730B840BBA0BEE1F88F7E095089591
:103250000E942F196894B1110C940A1A08950E94C3
:10326000EF1988F09F5798F0B92F9927B751B0F010
:10327000E1F0660F771F881F991F1AF0BA95C9F7FA
:1032800014C0B13091F00E94091AB1E008950C9475
:10329000091A672F782F8827B85F39F0B93FCCF328
:1032A000869577956795B395D9F73EF49095809577
:1032B000709561957F4F8F4F9F4F0895E89409C097
:1032C00097FB3EF490958095709561957F4F8F4F59
:1032D0009F4F9923A9F0F92F96E9BB279395F6956F
:1032E000879577956795B795F111F8CFFAF4BB0FED
:1032F00011F460FF1BC06F5F7F4F8F4F9F4F16C051
:10330000882311F096E911C0772321F09EE8872FDA
:10331000762F05C0662371F096E8862F70E060E096
:103320002AF09A95660F771F881FDAF7880F96950F
:10333000879597F90895990F0008550FAA0BE0E8B3
:10334000FEEF16161706E807F907C0F01216130667
:10335000E407F50798F0621B730B840B950B39F4A7
:103360000A2661F0232B242B252B21F408950A260D
:1033700009F4A140A6958FEF811D811D089597F94D
:103380009F6780E870E060E008959FEF80EC08950B
:1033900000240A9416161706180609060895002434
:1033A0000A9412161306140605060895092E0394AE
:1033B000000C11F4882352F0BB0F40F4BF2B11F422
:1033C00060FF04C06F5F7F4F8F4F9F4F089557FD81
:1033D0009058440F551F59F05F3F71F04795880F83
:1033E00097FB991F61F09F3F79F08795089512161A
:1033F00013061406551FF2CF4695F1DF08C01616C6
:1034000017061806991FF1CF869571056105089476
:103410000895E894BB2766277727CB0197F908958D
:103420000E949B1908F48FEF08950E94281A0C94AB
:10343000D6190E94C81938F00E94CF1920F09523A0
:1034400011F00C94BF190C94C51911240C940A1A8C
:103450000E94E71970F3959FC1F3950F50E0551F37
:10346000629FF001729FBB27F00DB11D639FAA27D9
:10347000F00DB11DAA1F649F6627B00DA11D661F28
:10348000829F2227B00DA11D621F739FB00DA11D49
:10349000621F839FA00D611D221F749F3327A00D03
:1034A000611D231F849F600D211D822F762F6A2F9F
:1034B00011249F5750409AF0F1F088234AF0EE0F04
:1034C000FF1FBB1F661F771F881F91505040A9F731
:1034D0009E3F510580F00C94BF190C940A1A5F3F6F
:1034E000E4F3983ED4F3869577956795B795F7956D
:1034F000E7959F5FC1F7FE2B880F911D96958795E5
:0835000097F90895F894FFCF3C
:103508000000B44303FF9FFF25FF0DFF99FF49FF0C
:1035180041FF1FFF01FF09FF11FFC1FF63FF85FF87
:0435280061FF71FFCF
:00000001FF
