:100000000C9472000C9486000C9486000C9486006C
:100010000C9486000C9486000C9486000C94860048
:100020000C9486000C9486000C9486000C94860038
:100030000C9486000C9486000C9486000C94670740
:100040000C9486000C94FB000C942B010C948600FD
:100050000C9488000C9486000C9486000C94860006
:100060000C9486000C9486000C9486000C948600F8
:100070000C9486000C9486000C9486000C948600E8
:100080000C9490020C94C0020C9486000C941D02F7
:100090000C9486000C9486000C9486000C948600C8
:1000A0000C9486000C9486000C9486000C948600B8
:1000B0000C9486000C9486000C9486000C948600A8
:1000C0000C9486000C9486000C9486000C94860098
:1000D0000C9486000C9486000C9486000C94860088
:1000E0000C94860011241FBECFEFD1E2DEBFCDBF3E
:1000F00000E00CBF22E0A0E0B2E001C01D92A230FF
:10010000B207E1F70E94B2030C94D9090C940000E5
:100110001F920F920FB60F9211240BB60F922F93CE
:100120008F939F93EF93FF93CF93DF93CDB7DEB77A
:1001300088E890E0FC01808191810097D1F48AE801
:1001400090E0FC0180819181009799F488E290E031
:10015000FC01208188E290E02E7FFC01208388E270
:1001600090E0FC01208188E290E02D7FFC0120835B
:1001700033C088E890E0FC0180819181009799F07C
:1001800088E290E0FC01208188E290E02160FC019F
:10019000208388E290E0FC01208188E290E02D7FBE
:1001A000FC01208319C08AE890E0FC0180819181E4
:1001B000009791F088E290E0FC01208188E290E0D5
:1001C0002E7FFC01208388E290E0FC01208188E200
:1001D00090E02260FC0120830000DF91CF91FF912D
:1001E000EF919F918F912F910F900BBE0F900FBEAB
:1001F0000F901F9018951F920F920FB60F92112417
:100200000BB60F922F938F939F93EF93FF93CF9300
:10021000DF93CDB7DEB788E890E0FC018081918163
:100220008F3F980749F088E290E0FC01208188E246
:1002300090E02E7FFC0120830000DF91CF91FF91A1
:10024000EF919F918F912F910F900BBE0F900FBE4A
:100250000F901F9018951F920F920FB60F921124B6
:100260000BB60F922F938F939F93EF93FF93CF93A0
:10027000DF93CDB7DEB78AE890E0FC018081918101
:100280008F3F980749F088E290E0FC01208188E2E6
:1002900090E02D7FFC0120830000DF91CF91FF9142
:1002A000EF919F918F912F910F900BBE0F900FBEEA
:1002B0000F901F901895CF93DF93CDB7DEB787E2ED
:1002C00090E0FC01208187E290E02160FC01208326
:1002D00087E290E0FC01208187E290E02260FC014F
:1002E000208388E290E0FC01208188E290E02E7F6C
:1002F000FC01208388E290E0FC01208188E290E00C
:100300002D7FFC01208380E890E0FC01108281E8D1
:1003100090E023E0FC01208388E890E0FC0111825A
:1003200010828AE890E0FC01118210828FE690E052
:1003300027E0FC01208380E00E94A2010000DF9101
:10034000CF9108950F931F93CF93DF9300D000D0E8
:1003500000D0CDB7DEB7898389818C390CF461C0B8
:100360008981843611F00CF05CC0898188236CF19E
:100370008AE890E0FC01118210828981482F880F61
:10038000550B660B770B8FEF9FEFDC019A01AB01EA
:100390000E94B8076A837B838C839D8304E610E008
:1003A00020E030E06A817B818C819D81A9019801E8
:1003B0000E949907DA01C901AC01BD0188E890E00B
:1003C0009A01FC01318320832CC088E890E0FC0175
:1003D000118210828981482F880F550B660B770B8D
:1003E0008FEF9FEFDC019A01AB010E94B8076E838B
:1003F0007F83888799870CE91FEF2FEF3FEF6E818E
:100400007F8188859985A90198010E949907DA0161
:10041000C901AC01BD018AE890E09A01FC01318379
:100420002083000029960FB6F894DEBF0FBECDBF23
:10043000DF91CF911F910F9108951F920F920FB6E8
:100440000F9211240BB60F922F938F939F93EF93DC
:10045000FF93CF93DF93CDB7DEB788E990E0FC013F
:10046000808191810097D1F48AE990E0FC0180813C
:100470009181009799F488E290E0FC01208188E264
:1004800090E02F7DFC01208388E290E0FC01208138
:1004900088E290E02F7EFC01208333C088E990E061
:1004A000FC0180819181009799F088E290E0FC0145
:1004B000208188E290E02062FC01208388E290E0C5
:1004C000FC01208188E290E02F7EFC01208319C08E
:1004D0008AE990E0FC0180819181009791F088E2A7
:1004E00090E0FC01208188E290E02F7DFC012083D8
:1004F00088E290E0FC01208188E290E02061FC012C
:1005000020830000DF91CF91FF91EF919F918F9118
:100510002F910F900BBE0F900FBE0F901F9018954C
:100520001F920F920FB60F9211240BB60F922F93BA
:100530008F939F93EF93FF93CF93DF93CDB7DEB766
:1005400088E990E0FC01808191818F3F980749F014
:1005500088E290E0FC01208188E290E02F7DFC01A0
:1005600020830000DF91CF91FF91EF919F918F91B8
:100570002F910F900BBE0F900FBE0F901F901895EC
:100580001F920F920FB60F9211240BB60F922F935A
:100590008F939F93EF93FF93CF93DF93CDB7DEB706
:1005A0008AE990E0FC01808191818F3F980749F0B2
:1005B00088E290E0FC01208188E290E02F7EFC013F
:1005C00020830000DF91CF91FF91EF919F918F9158
:1005D0002F910F900BBE0F900FBE0F901F9018958C
:1005E000CF93DF93CDB7DEB787E290E0FC012081A7
:1005F00087E290E02062FC01208387E290E0FC012A
:10060000208187E290E02061FC01208388E290E075
:10061000FC01208188E290E02F7DFC01208388E2AC
:1006200090E0FC01208188E290E02F7EFC01208395
:1006300080E990E0FC01108281E990E021E0FC017A
:10064000208388E990E0FC01118210828AE990E021
:10065000FC011182108281E790E027E0FC012083F9
:1006600080E00E9437030000DF91CF9108950F933F
:100670001F93CF93DF9300D000D000D0CDB7DEB76B
:10068000898389818C390CF461C08981843611F0A9
:100690000CF05CC0898188236CF18AE990E0FC0150
:1006A000118210828981482F880F550B660B770BBA
:1006B0008FEF9FEFDC019A01AB010E94B8076A83BC
:1006C0007B838C839D8304E610E020E030E06A8128
:1006D0007B818C819D81A90198010E949907DA0193
:1006E000C901AC01BD0188E990E09A01FC013183A8
:1006F00020832CC088E990E0FC011182108289815E
:10070000482F880F550B660B770B8FEF9FEFDC019F
:100710009A01AB010E94B8076E837F83888799870F
:100720000CE91FEF2FEF3FEF6E817F818885998560
:10073000A90198010E949907DA01C901AC01BD0124
:100740008AE990E09A01FC01318320830000299618
:100750000FB6F894DEBF0FBECDBFDF91CF911F91D2
:100760000F910895CF93DF93CDB7DEB760970FB6A3
:10077000F894DEBF0FBECDBF0E9436041A821982E4
:100780001C821B8284E690E09E838D8318861F82E4
:1007900081E090E09A87898720C00E945D040097DD
:1007A00061F08CE291E00E9417050E94D80481E07C
:1007B00090E09A8389831C821B820E9473040097B5
:1007C00061F08CE291E00E9417050E94D8041A8221
:1007D000198281E090E09C838B830E9447040097FC
:1007E000E1F222C00E948904009721F01A82198246
:1007F0001C821B820E94870598878F832F813885F2
:100800008D819E812817390709F074F42F8138856E
:100810008D819E812817390709F034F480E00E9409
:10082000A20180E00E94370389819A81813091057D
:10083000C9F216C01C861B861E861D862B853C852C
:100840008D859E85A901481B590BCA01988B8F87FE
:100850000E94B504009771F30E949F040097C1F7AE
:100860008B819C8181309105B9F396CFCF93DF9333
:10087000CDB7DEB70E9452050E9402050E945B01BF
:100880000E94F00278940000DF91CF910895CF93F9
:10089000DF93CDB7DEB78FE290E0FC018081882F37
:1008A00090E081709927009719F081E090E002C0F4
:1008B00080E090E0DF91CF910895CF93DF93CDB7A3
:1008C000DEB78FE290E0FC018081882F90E082709B
:1008D0009927009719F081E090E002C080E090E055
:1008E000DF91CF910895CF93DF93CDB7DEB78FE23D
:1008F00090E0FC018081882F90E084709927009718
:1009000019F081E090E002C080E090E0DF91CF91AB
:100910000895CF93DF93CDB7DEB78FE290E0FC016F
:100920008081882F90E084709927009719F081E0EA
:1009300090E002C080E090E0DF91CF910895CF93E6
:10094000DF93CDB7DEB78FE290E0FC018081882F86
:1009500090E088709927009719F081E090E002C03C
:1009600080E090E0DF91CF910895CF93DF93CDB7F2
:10097000DEB78FE290E0FC018081882F90E08071EB
:100980009927009719F081E090E00FC08FE290E086
:10099000FC018081882F90E080729927009719F0E0
:1009A00081E090E002C080E090E0DF91CF91089577
:1009B000CF93DF93CDB7DEB78EE290E0FC013081BC
:1009C0008EE290E020E12327FC0120838EE290E07C
:1009D000FC0130818EE290E020E22327FC0120839D
:1009E0000000DF91CF910895CF93DF930F920F9284
:1009F000CDB7DEB79A83898300000F900F90DF9107
:100A0000CF910895CF93DF93CDB7DEB780EA90E022
:100A1000FC01108281EA90E0FC01208181EA90E0F3
:100A20002260FC0120830000DF91CF910895CF93D5
:100A3000DF9300D000D0CDB7DEB79E838D838D814C
:100A40009E8121E230E0B9010E948507CB019C83A1
:100A50008B831A82198214C089E390E0FC018081A3
:100A6000882F90E081709927009751F089E390E0FA
:100A700021E0FC01208389819A8101969A838983F0
:100A800029813A818B819C81281739072CF300003A
:100A900000000F900F900F900F900F900F90DF912C
:100AA000CF910895CF93DF93CDB7DEB780E390E089
:100AB000FC01208180E390E02F77FC0120838AE015
:100AC00091E0FC0120818AE091E02064FC01208318
:100AD0008BE091E0FC0120818BE091E02F7BFC0119
:100AE000208380EB90E0FC01108281EB90E0FC0120
:100AF000208181EB90E02160FC01208380E790E081
:100B000021E0FC0120830000DF91CF910895CF9375
:100B1000DF93CDB7DEB76E970FB6F894DEBF0FBE8A
:100B2000CDBF0E940D0600008FE290E0DC018C91A9
:100B30008823D4F782EB90E0FC01108287E390E0F9
:100B400021E0DC012C9310920102109200020000BF
:100B50008FE290E0FC0180818823D4F38091000231
:100B6000909101029A83898389819A819C01990FCE
:100B7000440B550B2F87388B498B5A8B6F8578899F
:100B800089899A890E94B7086B837C838D839E83B1
:100B90002FE632E143E05CE36B817C818D819E81B5
:100BA0000E946C096B8B7C8B8D8B9E8B8B899C89B7
:100BB000AD89BE898F839887A987BA8720E030E8FE
:100BC0004BEA53E46F81788589859A850E946C0988
:100BD0006F8B788F898F9A8F2F89388D498D5A8D99
:100BE0002B873C874D875E876B857C858D859E85B1
:100BF0000E947F086B8F7C8F8D8F9E8F4B8D5C8DBD
:100C00005A83498389819A816E960FB6F894DEBF24
:100C10000FBECDBFDF91CF910895CF93DF93CDB7B6
:100C2000DEB7C854D1090FB6F894DEBF0FBECDBFF2
:100C30008BE091E0DC012C918BE091E02064FC01E1
:100C4000208380E090E0A0E2B1E489839A83AB83C3
:100C5000BC832BEA3AEA4AEA50E469817A818B81C3
:100C60009C810E946C096DA37EA38FA398A78DA180
:100C70009EA1AFA1B8A58D839E83AF83B88720E0E6
:100C800030E040E850E469817A818B819C810E9448
:100C90006C0969A77AA78BA79CA789A59AA5ABA57C
:100CA000BCA589879A87AB87BC8720E030E040E805
:100CB0005FE36D817E818F8198850E94080888237B
:100CC0001CF481E08D87E8C020E03FEF4FE757E458
:100CD00069857A858B859C850E946709882309F040
:100CE0000CF49FC020E030E04AE754E469817A8147
:100CF0008B819C810E940D086DA77EA78FA798AB62
:100D00008DA59EA5AFA5B8A98E879F87A88BB98B07
:100D100020E030E04AE755E46E857F85888999892F
:100D20000E946C0969AB7AAB8BAB9CAB89A99AA981
:100D3000ABA9BCA98A8B9B8BAC8BBD8B20E030E030
:100D400040E85FE36A897B898C899D890E94080855
:100D500088232CF481E090E09F8B8E8B57C020E09D
:100D60003FEF4FE757E46A897B898C899D890E9410
:100D700067098823D9F1D4F120E030E040E251E462
:100D80006E857F85888999890E946C096DAB7EABE1
:100D90008FAB98AF8DA99EA9AFA9B8AD89A39AA32F
:100DA000ABA3BCA369A17AA18BA19CA10E948608D8
:100DB00069AF7AAF8BAF9CAFA9ADBAADBF8BAE8B2D
:100DC00010C080E991E0998F888F888D998D019767
:100DD000F1F7998F888F00008E899F8901979F8BEB
:100DE0008E8B8E899F89009761F756C06A897B89AF
:100DF0008C899D890E94860821966CAF7DAF8EAF4D
:100E00009FAF2197EDADFEADFF8BEE8B8E899F8955
:100E10009B8F8A8F8A8D9B8D0197F1F79B8F8A8F8D
:100E20003BC020E030E04FE753E46D817E818F814D
:100E300098850E9467098823F9F0F4F069857A851E
:100E40008B859C850E94860825966CAF7DAF8EAF02
:100E50009FAF259723968EAD9FAD23979D8F8C8F47
:100E60008C8D9D8D9F8F8E8F8E8D9F8D0197F1F72D
:100E70009F8F8E8F000017C06D817E818F81988536
:100E80000E94860829966CAF7DAF8EAF9FAF2997E1
:100E900026969FAD26979D878D8588A388A18A95E4
:100EA000F1F788A300008BE091E0DC012C918BE04E
:100EB00091E02F7BFC0120830000C85BDF4F0FB661
:100EC000F894DEBF0FBECDBFDF91CF9108951F9282
:100ED0000F920FB60F9211248F939F93CF93DF93AE
:100EE000CDB7DEB7809100029091010201969093F8
:100EF0000102809300020000DF91CF919F918F91BA
:100F00000F900FBE0F901F90189597FB072E16F4A9
:100F1000009407D077FD09D00E94C30707FC05D0D5
:100F20003EF4909581959F4F0895709561957F4F00
:100F30000895052E97FB1EF400940E94B00757FDFC
:100F400007D00E94D70707FC03D04EF40C94B007DB
:100F500050954095309521953F4F4F4F5F4F0895E5
:100F600090958095709561957F4F8F4F9F4F089515
:100F70000E94F907A59F900DB49F900DA49F800D2E
:100F8000911D11240895AA1BBB1B51E107C0AA1F84
:100F9000BB1FA617B70710F0A61BB70B881F991F1A
:100FA0005A95A9F780959095BC01CD010895A1E2CD
:100FB0001A2EAA1BBB1BFD010DC0AA1FBB1FEE1FD3
:100FC000FF1FA217B307E407F50720F0A21BB30B1E
:100FD000E40BF50B661F771F881F991F1A9469F79A
:100FE00060957095809590959B01AC01BD01CF01F6
:100FF0000895A29FB001B39FC001A39F700D811DF2
:101000001124911DB29F700D811D1124911D089511
:101010000E94F20808F481E008950E9421080C94CF
:101020002D090E94260958F00E941F0940F029F45A
:101030005F3F29F00C94160951110C9461090C942E
:101040001C090E943E0968F39923B1F3552391F3DB
:10105000951B550BBB27AA2762177307840738F027
:101060009F5F5F4F220F331F441FAA1FA9F335D084
:101070000E2E3AF0E0E832D091505040E695001C38
:10108000CAF72BD0FE2F29D0660F771F881FBB1FF2
:10109000261737074807AB07B0E809F0BB0B802DD0
:1010A000BF01FF2793585F4F3AF09E3F510578F0FC
:1010B0000C9416090C9461095F3FE4F3983ED4F355
:1010C000869577956795B795F7959F5FC9F7880FD0
:1010D000911D9695879597F90895E1E0660F771F22
:1010E000881FBB1F621773078407BA0720F0621BB3
:1010F000730B840BBA0BEE1F88F7E09508950E94DE
:1011000086086894B1110C94610908950E944609FB
:1011100088F09F5798F0B92F9927B751B0F0E1F0B8
:10112000660F771F881F991F1AF0BA95C9F714C068
:10113000B13091F00E946009B1E008950C9460090B
:10114000672F782F8827B85F39F0B93FCCF38695A1
:1011500077956795B395D9F73EF4909580957095FE
:1011600061957F4F8F4F9F4F0895E89409C097FB7B
:101170003EF490958095709561957F4F8F4F9F4F6E
:101180009923A9F0F92F96E9BB279395F6958795B2
:1011900077956795B795F111F8CFFAF4BB0F11F475
:1011A00060FF1BC06F5F7F4F8F4F9F4F16C088231C
:1011B00011F096E911C0772321F09EE8872F762F52
:1011C00005C0662371F096E8862F70E060E02AF093
:1011D0009A95660F771F881FDAF7880F969587957F
:1011E00097F90895990F0008550FAA0BE0E8FEEF54
:1011F00016161706E807F907C0F012161306E407DB
:10120000F50798F0621B730B840B950B39F40A26D3
:1012100061F0232B242B252B21F408950A2609F4B1
:10122000A140A6958FEF811D811D089597F99F67B5
:1012300080E870E060E008959FEF80EC089500245E
:101240000A941616170618060906089500240A942B
:1012500012161306140605060895092E0394000CB1
:1012600011F4882352F0BB0F40F4BF2B11F460FF40
:1012700004C06F5F7F4F8F4F9F4F089557FD905869
:10128000440F551F59F05F3F71F04795880F97FB4A
:10129000991F61F09F3F79F0879508951216130604
:1012A0001406551FF2CF4695F1DF08C01616170633
:1012B0001806991FF1CF8695710561050894089568
:1012C000E894BB2766277727CB0197F908950E94FA
:1012D000F20808F48FEF08950E947F090C942D09FD
:1012E0000E941F0938F00E94260920F0952311F072
:1012F0000C9416090C941C0911240C9461090E9489
:101300003E0970F3959FC1F3950F50E0551F629F02
:10131000F001729FBB27F00DB11D639FAA27F00D4E
:10132000B11DAA1F649F6627B00DA11D661F829F75
:101330002227B00DA11D621F739FB00DA11D621F5A
:10134000839FA00D611D221F749F3327A00D611D77
:10135000231F849F600D211D822F762F6A2F112459
:101360009F5750409AF0F1F088234AF0EE0FFF1F8C
:10137000BB1F661F771F881F91505040A9F79E3FE3
:10138000510580F00C9416090C9461095F3FE4F359
:10139000983ED4F3869577956795B795F795E79539
:1013A0009F5FC1F7FE2B880F911D9695879597F942
:0613B0000895F894FFCF40
:00000001FF
