:100000000C9472000C9493000C9493000C94930045
:100010000C9493000C9493000C9493000C94930014
:100020000C9493000C9493000C9493000C94930004
:100030000C9493000C9493000C9493000C94701205
:100040000C9493000C9403040C9433040C949300CC
:100050000C9490030C9493000C9493000C947002F5
:100060000C9493000C9493000C9493000C949300C4
:100070000C9493000C9493000C9493000C949300B4
:100080000C9498050C94C8050C9493000C942505C9
:100090000C9493000C9493000C9493000C94930094
:1000A0000C9493000C9493000C9493000C94930084
:1000B0000C9493000C9493000C9493000C94930074
:1000C0000C9493000C9493000C9493000C94930064
:1000D0000C9493000C9493000C9493000C94930054
:1000E0000C94930011241FBECFEFD1E2DEBFCDBF31
:1000F00000E00CBF12E0A0E0B2E0E2EAFAE200E0C9
:100100000BBF02C007900D92A032B107D9F722E0D1
:10011000A0E2B2E001C01D92AC32B207E1F70E944A
:10012000BA060C944F150C940000CF93DF93CDB713
:10013000DEB788EB90E028E4FC0120830000DF912B
:10014000CF910895CF93DF93CDB7DEB78CEB90E0DE
:1001500024EAFC01208300008CEB90E0FC0180810C
:100160008823D4F700000000DF91CF910895CF934A
:10017000DF93CDB7DEB78CEB90E024E9FC01208360
:100180000000DF91CF910895CF93DF930F92CDB709
:10019000DEB789838BEB90E02981FC0120838CEB17
:1001A00090E024E8FC01208300008CEB90E0FC014F
:1001B00080818823D4F7000000000F90DF91CF9159
:1001C0000895CF93DF93CDB7DEB78CEB90E024ECAE
:1001D000FC01208300008CEB90E0FC0180818823EF
:1001E000D4F78BEB90E0FC018081DF91CF910895F3
:1001F000CF93DF93CDB7DEB78CEB90E024E8FC0122
:10020000208300008CEB90E0FC0180818823D4F7F0
:100210008BEB90E0FC018081DF91CF910895CF932B
:10022000DF930F920F92CDB7DEB789836A830E9466
:10023000A20080ED0E94C40089810E94C4008A81CE
:100240000E94C4000E94B70000000F900F90DF9141
:10025000CF9108950F931F93CF93DF9300D0CDB725
:10026000DEB78B830E94A20080ED0E94C4008B81C8
:100270000E94C4000E94A20081ED0E94C4000E945E
:10028000E100882F90E0182F00270E94F800882FA7
:1002900090E0802B912B9A8389830E94B7008981FB
:1002A0009A810F900F900F90DF91CF911F910F9136
:1002B0000895CF93DF93CDB7DEB766970FB6F89466
:1002C000DEBF0FBECDBF83E40E942A019A838983DB
:1002D00089819A818A519F4F9A83898389819A81E2
:1002E0009C01990F440B550B2F87388B498B5A8BE8
:1002F0006F85788989899A890E942D146F83788700
:1003000089879A8720E030E043E053E46F81788565
:1003100089859A850E9483136B8B7C8B8D8B9E8B3A
:100320008B899C89AD89BE898B839C83AD83BE8379
:100330008B819C81AD81BE818B879C87AD87BE8779
:100340006B857C858D859E8566960FB6F894DEBF9D
:100350000FBECDBFDF91CF910895CF93DF93CDB77F
:10036000DEB766970FB6F894DEBF0FBECDBF85E44B
:100370000E942A019A83898389819A819C01990F1D
:10038000440B550B2F87388B498B5A8B6F85788997
:1003900089899A890E942D146F83788789879A8723
:1003A00020E030E043E053E46F81788589859A85C9
:1003B0000E9483136B8B7C8B8D8B9E8B8B899C898E
:1003C000AD89BE898B839C83AD83BE838B819C81E9
:1003D000AD81BE818B879C87AD87BE876B857C8511
:1003E0008D859E8566960FB6F894DEBF0FBECDBF95
:1003F000DF91CF910895CF93DF93CDB7DEB76697A6
:100400000FB6F894DEBF0FBECDBF87E40E942A016D
:100410009A83898389819A819C01990F440B550B9A
:100420002F87388B498B5A8B6F85788989899A8970
:100430000E942D146F83788789879A8720E030E0A7
:1004400043E053E46F81788589859A850E94831300
:100450006B8B7C8B8D8B9E8B8B899C89AD89BE89A8
:100460008B839C83AD83BE838B819C81AD81BE8158
:100470008B879C87AD87BE876B857C858D859E85A8
:1004800066960FB6F894DEBF0FBECDBFDF91CF9159
:100490000895CF93DF93CDB7DEB760E08BE60E947F
:1004A0000F010000DF91CF910895CF93DF93CDB777
:1004B000DEB784E490E0FC01108285E490E0FC016A
:1004C000208185E490E02160FC0120838EE690E0AD
:1004D00021E0FC01208378940000DF91CF91089502
:1004E0001F920F920FB60F9211248F939F93CF9369
:1004F000DF93CDB7DEB78091200290912102019663
:1005000090932102809320020000DF91CF919F9170
:100510008F910F900FBE0F901F901895CF93DF9380
:10052000CDB7DEB7EC970FB6F894DEBF0FBECDBFE8
:1005300069877A878B879C8719821A821B821C8223
:100540000E9459016D877E878F87988B2D853E8508
:100550004F85588920932602309327024093280222
:100560005093290280912002909121029C01990FC1
:10057000440B550B29A33AA34BA35CA369A17AA111
:100580008BA19CA10E942D146DA37EA38FA398A77D
:100590008DA19EA1AFA1B8A589839A83AB83BC83AB
:1005A00086E490E0DC011C9285E390E021E0FC0110
:1005B000208310922102109220022DEB37E346E8AF
:1005C00057E369817A818B819C810E94E21469A73B
:1005D0007AA78BA79CA729A53AA54BA55CA529833B
:1005E0003A834B835C838091220290912302A091F5
:1005F0002402B0912502898B9A8BAB8BBC8B8091A6
:10060000260290912702A0912802B09129029C0114
:10061000AD0169897A898B899C890E9412136DA723
:100620007EA78FA798AB2DA53EA54FA558A92D8BCA
:100630003E8B4F8B588F29813A814B815C816D892C
:100640007E898F89988D0E94E21469AB7AAB8BAB5F
:100650009CAB89A99AA9ABA9BCA9898F9A8FAB8FAA
:10066000BC8F20E030E040E050E4698D7A8D8B8DC6
:100670009C8D0E9483136DAB7EAB8FAB98AF2DA981
:100680003EA94FA958AD2D833E834F8358872D81B6
:100690003E814F81588569857A858B859C850E942E
:1006A000121369AF7AAF8BAF9CAF89AD9AADABAD8A
:1006B000BCAD89879A87AB87BC87809126029091D1
:1006C0002702A0912802B0912902809322029093E0
:1006D0002302A0932402B093250289859A85AB85D5
:1006E000BC858D8F9E8FAF8FB8A36D8D7E8D8F8DC6
:1006F00098A1EC960FB6F894DEBF0FBECDBFDF9188
:10070000CF910895CF93DF93CDB7DEB70E949500C8
:100710000E9449020E9455020000DF91CF91089586
:100720001F920F920FB60F9211240BB60F922F93B8
:100730008F939F93EF93FF93CF93DF93CDB7DEB764
:1007400088E890E0FC01808191810097D1F48AE8EB
:1007500090E0FC0180819181009799F488E091E01C
:10076000FC01208188E091E02F7DFC01208388E05E
:1007700091E0FC01208188E091E02F7EFC01208344
:1007800033C088E890E0FC0180819181009799F066
:1007900088E091E0FC01208188E091E02062FC018A
:1007A000208388E091E0FC01208188E091E02F7EA9
:1007B000FC01208319C08AE890E0FC0180819181CE
:1007C000009791F088E091E0FC01208188E091E0C1
:1007D0002F7DFC01208388E091E0FC01208188E0EE
:1007E00091E02061FC0120830000DF91CF91FF9117
:1007F000EF919F918F912F910F900BBE0F900FBE95
:100800000F901F9018951F920F920FB60F92112400
:100810000BB60F922F938F939F93EF93FF93CF93EA
:10082000DF93CDB7DEB788E890E0FC01808191814D
:100830008F3F980749F088E091E0FC01208188E033
:1008400091E02F7DFC0120830000DF91CF91FF918B
:10085000EF919F918F912F910F900BBE0F900FBE34
:100860000F901F9018951F920F920FB60F921124A0
:100870000BB60F922F938F939F93EF93FF93CF938A
:10088000DF93CDB7DEB78AE890E0FC0180819181EB
:100890008F3F980749F088E091E0FC01208188E0D3
:1008A00091E02F7EFC0120830000DF91CF91FF912A
:1008B000EF919F918F912F910F900BBE0F900FBED4
:1008C0000F901F901895CF93DF93CDB7DEB787E0D9
:1008D00091E0FC01208187E091E02062FC0120830F
:1008E00087E091E0FC01208187E091E02061FC013C
:1008F000208388E091E0FC01208188E091E02F7D59
:10090000FC01208388E091E0FC01208188E091E0F7
:100910002F7EFC01208380E890E0FC01108281E8BA
:1009200090E021E0FC01208388E890E0FC01118246
:1009300010828AE890E0FC01118210828FE690E03C
:1009400027E0FC01208380E00E94AA040000DF91E0
:10095000CF9108950F931F93CF93DF9300D000D0D2
:1009600000D0CDB7DEB7898389818C390CF461C0A2
:100970008981843611F00CF05CC0898188236CF188
:100980008AE890E0FC01118210828981482F880F4B
:10099000550B660B770B8FEF9FEFDC019A01AB01D4
:1009A0000E94D0126A837B838C839D8304E610E0CF
:1009B00020E030E06A817B818C819D81A9019801D2
:1009C0000E94A212DA01C901AC01BD0188E890E0E1
:1009D0009A01FC01318320832CC088E890E0FC015F
:1009E000118210828981482F880F550B660B770B77
:1009F0008FEF9FEFDC019A01AB010E94D0126E8352
:100A00007F83888799870CE91FEF2FEF3FEF6E8177
:100A10007F8188859985A90198010E94A212DA0137
:100A2000C901AC01BD018AE890E09A01FC01318363
:100A30002083000029960FB6F894DEBF0FBECDBF0D
:100A4000DF91CF911F910F9108951F920F920FB6D2
:100A50000F9211240BB60F922F938F939F93EF93C6
:100A6000FF93CF93DF93CDB7DEB788E990E0FC0129
:100A7000808191810097D1F48AE990E0FC01808126
:100A80009181009799F488E091E0FC01208188E051
:100A900091E02F77FC01208388E091E0FC01208128
:100AA00088E091E02F7BFC01208333C088E990E04F
:100AB000FC0180819181009799F088E091E0FC0130
:100AC000208188E091E02068FC01208388E091E0AB
:100AD000FC01208188E091E02F7BFC01208319C07C
:100AE0008AE990E0FC0180819181009791F088E093
:100AF00091E0FC01208188E091E02F77FC012083C8
:100B000088E091E0FC01208188E091E02064FC0114
:100B100020830000DF91CF91FF91EF919F918F9102
:100B20002F910F900BBE0F900FBE0F901F90189536
:100B30001F920F920FB60F9211240BB60F922F93A4
:100B40008F939F93EF93FF93CF93DF93CDB7DEB750
:100B500088E990E0FC01808191818F3F980749F0FE
:100B600088E091E0FC01208188E091E02F77FC0192
:100B700020830000DF91CF91FF91EF919F918F91A2
:100B80002F910F900BBE0F900FBE0F901F901895D6
:100B90001F920F920FB60F9211240BB60F922F9344
:100BA0008F939F93EF93FF93CF93DF93CDB7DEB7F0
:100BB0008AE990E0FC01808191818F3F980749F09C
:100BC00088E091E0FC01208188E091E02F7BFC012E
:100BD00020830000DF91CF91FF91EF919F918F9142
:100BE0002F910F900BBE0F900FBE0F901F90189576
:100BF000CF93DF93CDB7DEB787E091E0FC01208192
:100C000087E091E02068FC01208387E091E0FC010F
:100C1000208187E091E02064FC01208388E091E05E
:100C2000FC01208188E091E02F77FC01208388E09F
:100C300091E0FC01208188E091E02F7BFC01208382
:100C400080E990E0FC01108281E990E021E0FC0164
:100C5000208388E990E0FC01118210828AE990E00B
:100C6000FC011182108281E790E027E0FC012083E3
:100C700080E00E943F060000DF91CF9108950F931E
:100C80001F93CF93DF9300D000D000D0CDB7DEB755
:100C9000898389818C390CF461C08981843611F093
:100CA0000CF05CC0898188236CF18AE990E0FC013A
:100CB000118210828981482F880F550B660B770BA4
:100CC0008FEF9FEFDC019A01AB010E94D0126A8383
:100CD0007B838C839D8304E610E020E030E06A8112
:100CE0007B818C819D81A90198010E94A212DA0169
:100CF000C901AC01BD0188E990E09A01FC01318392
:100D000020832CC088E990E0FC0111821082898147
:100D1000482F880F550B660B770B8FEF9FEFDC0189
:100D20009A01AB010E94D0126E837F8388879987D6
:100D30000CE91FEF2FEF3FEF6E817F81888599854A
:100D4000A90198010E94A212DA01C901AC01BD01FA
:100D50008AE990E09A01FC01318320830000299602
:100D60000FB6F894DEBF0FBECDBFDF91CF911F91BC
:100D70000F910895CF93DF93CDB7DEB7C655D10954
:100D80000FB6F894DEBF0FBECDBF0E94F5080E94DB
:100D9000970A1E821D8281E090E098878F8384E607
:100DA00090E09A87898780E090E0A4EBB3E48983A0
:100DB0009A83AB83BC8388E691E09C878B871E86F1
:100DC0001D86188A1F861A8A198A81E090E09C8BFA
:100DD0008B8B84E290E0DC012C9184E290E0206C2B
:100DE000FC01208385E290E0DC012C9185E290E01B
:100DF000206CFC0120838DE290E0DC012C918DE2DF
:100E000090E02062FC0120838EE290E0DC012C91D6
:100E10008EE290E02062FC012083EDC00E94B80CBD
:100E20009E878D872D853E8589859A85A901481BDA
:100E3000590BCA01988B8F878D859E850E94600B08
:100E400089819A81AB81BC818BA79CA7ADA7BEA7E6
:100E50006BA57CA58DA59EA50E948E026FA778AB81
:100E600089AB9AAB2FA538A949A95AA929833A83F6
:100E70004B835C838B859C859C01990F440B550BA0
:100E80002BAB3CAB4DAB5EAB6BA97CA98DA99EA9EE
:100E90000E942D146B8F7C8F8D8F9E8F29813A81BC
:100EA0004B815C816B8D7C8D8D8D9E8D0E9411138D
:100EB0006FAB78AF89AF9AAF8FA998ADA9ADBAAD36
:100EC0008F8F98A3A9A3BAA36F8D78A189A19AA1A6
:100ED0000E94F5136BAF7CAF8DAF9EAFABADBCADD9
:100EE000BA8BA98B89899A898330910539F034F0BE
:100EF00083E20E94AA0489E10E943F0689899A89B7
:100F00008D3FBFEF9B0734F489E10E94AA0483E27E
:100F10000E943F068F859889883C910539F034F00E
:100F200083E20E94AA0483E20E943F068F8598898B
:100F30008837910569F064F08F859889873C910521
:100F400009F034F486E10E94AA0486E10E943F067B
:100F50008F8598898C33910569F064F08F85988925
:100F60008737910509F034F482E10E94AA0482E1F6
:100F70000E943F068F8598898431910569F064F05D
:100F80008F8598898B33910509F034F48FE00E94A6
:100F9000AA048FE00E943F068F859889009769F028
:100FA00064F08F8598898331910509F034F48CE0E1
:100FB0000E94AA048CE00E943F068F8598898B3F8F
:100FC000EFEF9E0734F48EEE0E94AA048EEE0E948C
:100FD0003F068F8598898C3FFFEF9F0764F08F85D0
:100FE00098898430910509F034F480E00E94AA04C5
:100FF00080E00E943F068D819E818130910509F439
:101000000DCFECC00E94A00E9E8B8D8B0E9488108D
:10101000988F8F8B29813A814B815C8123962CAFED
:101020003DAF4EAF5FAF239723966CAD7DAD8EADD8
:101030009FAD23970E948E0227966CAF7DAF8EAF37
:101040009FAF279727968CAD9DADAEADBFAD2797CF
:1010500089839A83AB83BC8369817A818B819C81EC
:101060000E94F5132B966CAF7DAF8EAF9FAF2B9781
:101070002996AEADBFAD2997BA8FA98F898D9A8D6C
:101080000E94600B8B859C859C01990F440B550B2E
:101090002F962CAF3DAF4EAF5FAF2F972F966CAD15
:1010A0007DAD8EAD9FAD2F970E942D146BA37CA3B9
:1010B0008DA39EA329813A814B815C816BA17CA188
:1010C0008DA19EA10E94111363966CAF7DAF8EAF70
:1010D0009FAF639763968CAD9DADAEADBFAD63978B
:1010E0008FA398A7A9A7BAA76FA178A589A59AA544
:1010F0000E94F51367966CAF7DAF8EAF9FAF679779
:101100006596AEADBFAD6597B88BAF878F85988973
:101110008130910539F034F082E30E94AA048DE217
:101120000E943F068F8598898330910539F034F00D
:1011300082E30E94AA0488E20E943F068F85988974
:101140008830910539F034F082E30E94AA0484E1EA
:101150000E943F068F8598898F3FBFEF9B0734F42D
:101160008DE20E94AA0482E30E943F068F8598893F
:101170008D3FEFEF9E0734F488E20E94AA0482E3D9
:101180000E943F068F859889883FFFEF9F0734F4C0
:1011900084E10E94AA0482E30E943F068F85988919
:1011A00099235CF08F859889009709F034F482E3E5
:1011B0000E94AA0482E30E943F060E9469098130CE
:1011C000910561F480E00E94AA0480E00E943F063D
:1011D0000E94E70980ED97E00E945C0A8F81988564
:1011E0008130910509F40ECF06CFCF93DF93CDB7B1
:1011F000DEB70E944D0C0E94470A0E9463040E94C1
:10120000F8050E94820388E091E0FC01208188E0DB
:1012100091E02E7FFC01208378940000DF91CF9134
:101220000895CF93DF93CDB7DEB789E091E0FC015D
:101230008081882F90E082709927009719F081E0D3
:1012400090E002C080E090E0DF91CF910895CF93CD
:10125000DF93CDB7DEB789E091E0FC018081882F74
:1012600090E088709927009719F081E090E002C023
:1012700080E090E0DF91CF910895CF93DF93CDB7D9
:10128000DEB789E091E0FC018081882F90E08072D8
:101290009927009719F081E090E002C080E090E08B
:1012A000DF91CF910895CF93DF93CDB7DEB786E07E
:1012B00091E0FC018081882F90E081709927009750
:1012C00019F081E090E002C080E090E0DF91CF91E2
:1012D0000895CF93DF9300D000D00F920F92CDB737
:1012E000DEB70E94A00E9A8389830E9488109C8397
:1012F0008B831E821D8218861F8231E089819A812C
:101300008A35910511F00CF030E021E08D819E814D
:10131000009709F020E0832F8223882339F081E0B1
:1013200090E09E838D8381E090E02CC089819A813A
:101330008837910519F014F01E821D8231E08B81EF
:101340009C818A35910511F00CF030E021E08F810D
:101350009885009709F020E0832F8223882339F0B5
:1013600081E090E098878F8381E090E00BC08B81D3
:101370009C818837910521F01CF018861F8202C0DD
:1013800080E090E028960FB6F894DEBF0FBECDBF88
:10139000DF91CF910895CF93DF93CDB7DEB785E28C
:1013A00090E0FC01308185E290E020E82327FC01F9
:1013B000208385E290E0FC01308185E290E020E42A
:1013C0002327FC0120830000DF91CF910895CF9364
:1013D000DF93CDB7DEB78EE290E0FC0120818EE294
:1013E00090E02F7DFC01208388E290E00E945C0A5F
:1013F0008EE290E0FC0120818EE290E02062FC0110
:1014000020838CE390E00E945C0A8EE290E0FC0175
:1014100020818EE290E02F7DFC01208388E290E025
:101420000E945C0A8EE290E0FC0120818EE290E056
:101430002062FC01208386E990E00E945C0A8EE233
:1014400090E0FC0120818EE290E02F7DFC01208362
:1014500086E490E00E945C0A8EE290E0FC0120812C
:101460008EE290E02062FC0120830000DF91CF91AA
:101470000895CF93DF930F920F92CDB7DEB79A8383
:10148000898300000F900F90DF91CF910895CF9343
:10149000DF93CDB7DEB780EA90E0FC01108281EAED
:1014A00090E0FC01208181EA90E02260FC01208331
:1014B0000000DF91CF910895CF93DF9300D000D04B
:1014C000CDB7DEB79E838D838D819E8121E230E092
:1014D000B9010E948E12CB019C838B831A821982E0
:1014E00014C089E390E0FC018081882F90E0817036
:1014F0009927009751F089E390E021E0FC012083D7
:1015000089819A8101969A83898329813A818B8185
:101510009C81281739072CF3000000000F900F90D2
:101520000F900F900F900F90DF91CF910895CF9370
:10153000DF93CDB7DEB781E091E0FC01208181E04F
:1015400091E02062FC01208381E091E0FC01208198
:1015500081E091E02061FC01208383E390E0FC01C5
:10156000208183E390E02062FC01208382E091E00F
:10157000FC01208182E091E02F7EFC01208384E346
:1015800090E0FC01208184E390E02F7DFC0120832A
:101590000000DF91CF910895CF93DF9300D00F9299
:1015A0000F92CDB7DEB78D831A82198239C08D8133
:1015B000082E000C990B817099279C838B838D8159
:1015C00085958D838B819C81009751F082E091E01D
:1015D000FC01208182E091E02062FC01208309C0AF
:1015E00082E091E0FC01208182E091E02F7DFC010E
:1015F000208382E091E0FC01208182E091E0206183
:10160000FC01208382E091E0FC01208182E091E0F6
:101610002F7EFC01208389819A8101969A83898398
:1016200089819A818730910511F208F2000000004B
:101630000F900F900F900F900F90DF91CF91089522
:10164000CF93DF930F920F92CDB7DEB79A83898342
:1016500080E190E0098002C0880F991F0A94E2F7A8
:101660000E94CC0A00000F900F90DF91CF91089557
:10167000CF93DF9300D0CDB7DEB789837B836A83B6
:1016800089810E94CC0A8A819B810E94200B84E37D
:1016900090E0FC01208184E390E02062FC01208343
:1016A00084E390E0FC01208184E390E02F7DFC0145
:1016B000208300000F900F900F90DF91CF9108953D
:1016C000CF93DF93CDB7DEB7A6970FB6F894DEBF02
:1016D0000FBECDBF9A8B898B1A821982CCC04989E3
:1016E0005A899A01ADECBCEC0E94C1129C0136955E
:1016F00027953695279536952795C901880F991F07
:10170000880F991F820F931F880F991F9A01281B1A
:10171000390BC901880F991F80509E4FDC018D91B4
:101720009C91282F89819A81BC01822F0E94380BBD
:1017300089899A899C01ADECBCEC0E94C1129695F6
:10174000879596958795969587959A8B898B80E056
:1017500090E0A0E8BFE38B839C83AD83BE8320E051
:1017600030E04AE755E46B817C818D819E810E9447
:10177000E2146F8B788F898F9A8F8F89988DA98DBE
:10178000BA8D8F839887A987BA8720E030E040E838
:101790005FE36F81788589859A850E947E1388230F
:1017A0002CF481E090E09C878B8755C020E03FEFD0
:1017B0004FE757E46F81788589859A850E94DD140B
:1017C0008823D9F1D4F120E030E040E251E46B818C
:1017D0007C818D819E810E94E2146B8F7C8F8D8F26
:1017E0009E8F8B8D9C8DAD8DBE8D8B8B9C8BAD8B91
:1017F000BE8B6B897C898D899E890E94FC136F8FBB
:1018000078A389A39AA3AF8DB8A1BC87AB8710C07A
:1018100080E991E09E878D878D859E850197F1F700
:101820009E878D8700008B859C8501979C878B8781
:101830008B859C85009761F719C06F8178858985B4
:101840009A850E94FC136BA37CA38DA39EA3EBA19E
:10185000FCA1FC87EB878B859C85988B8F878F8578
:1018600098890197F1F7988B8F87000089819A8179
:1018700001969A83898389819A818330910509F041
:101880000CF42DCF00000000A6960FB6F894DEBF32
:101890000FBECDBFDF91CF910895CF93DF93CDB72A
:1018A000DEB787E091E0FC01208187E091E0277FAF
:1018B000FC01208381E290E0FC01208181E290E044
:1018C0002160FC01208382E290E0FC01208182E221
:1018D00090E02E7FFC01208387E091E0FC012081D5
:1018E00087E091E02D7FFC01208381E290E0FC0104
:1018F000208181E290E02061FC01208382E290E07F
:10190000FC01208182E290E02F7EFC01208387E0B1
:1019100091E0FC01208187E091E02B7FFC01208396
:1019200081E290E0FC01208181E290E02460FC01F2
:10193000208382E290E0FC01208182E290E02B7F14
:10194000FC01208380EB90E0FC01108281EB90E0B1
:10195000FC01208181EB90E02160FC01208380E785
:1019600090E021E0FC0120830000DF91CF910895F9
:10197000CF93DF93CDB7DEB76E970FB6F894DEBF87
:101980000FBECDBF0E94460D000086E091E0DC0155
:101990008C91882F90E0887099270097B1F382EBA3
:1019A00090E0FC01108287E390E021E0DC012C93C1
:1019B00010922B0210922A02000086E091E0FC01B6
:1019C0008081882F90E0887099270097B1F78091E7
:1019D0002A0290912B029A83898389819A819C01A2
:1019E000990F440B550B2F87388B498B5A8B6F857A
:1019F000788989899A890E942D146B837C838D83D1
:101A00009E832FE632E143E05CE36B817C818D8134
:101A10009E810E94E2146B8B7C8B8D8B9E8B8B89BD
:101A20009C89AD89BE898F839887A987BA8720E072
:101A300030E84BEA53E46F81788589859A850E9466
:101A4000E2146F8B788F898F9A8F2F89388D498D0B
:101A50005A8D2B873C874D875E876B857C858D856E
:101A60009E850E94F5136B8F7C8F8D8F9E8F4B8D83
:101A70005C8D5A83498389819A816E960FB6F8945A
:101A8000DEBF0FBECDBFDF91CF910895CF93DF931F
:101A9000CDB7DEB7C854D1090FB6F894DEBF0FBE7C
:101AA000CDBF82E290E0DC012C9182E290E02160E7
:101AB000FC01208380E090E0A0E2B1E489839A8376
:101AC000AB83BC832BEA3AEA4AEA50E469817A8123
:101AD0008B819C810E94E2146DA37EA38FA398A7A3
:101AE0008DA19EA1AFA1B8A58D839E83AF83B8873A
:101AF00020E030E040E850E469817A818B819C816C
:101B00000E94E21469A77AA78BA79CA789A59AA52A
:101B1000ABA5BCA589879A87AB87BC8720E030E05E
:101B200040E85FE36D817E818F8198850E947E13FE
:101B300088231CF481E08D87E8C020E03FEF4FE769
:101B400057E469857A858B859C850E94DD148823FE
:101B500009F00CF49FC020E030E04AE754E46981CA
:101B60007A818B819C810E9483136DA77EA78FA7AA
:101B700098AB8DA59EA5AFA5B8A98E879F87A88B8A
:101B8000B98B20E030E04AE755E46E857F8588898F
:101B900099890E94E21469AB7AAB8BAB9CAB89A9A3
:101BA0009AA9ABA9BCA98A8B9B8BAC8BBD8B20E07F
:101BB00030E040E85FE36A897B898C899D890E94D7
:101BC0007E1388232CF481E090E09F8B8E8B57C08E
:101BD00020E03FEF4FE757E46A897B898C899D8934
:101BE0000E94DD148823D9F1D4F120E030E040E2F6
:101BF00051E46E857F85888999890E94E2146DABD6
:101C00007EAB8FAB98AF8DA99EA9AFA9B8AD89A3C4
:101C10009AA3ABA3BCA369A17AA18BA19CA10E94AA
:101C2000FC1369AF7AAF8BAF9CAFA9ADBAADBF8BD8
:101C3000AE8B10C080E991E0998F888F888D998D47
:101C40000197F1F7998F888F00008E899F890197FE
:101C50009F8B8E8B8E899F89009761F756C06A890A
:101C60007B898C899D890E94FC1321966CAF7DAF86
:101C70008EAF9FAF2197EDADFEADFF8BEE8B8E89C2
:101C80009F899B8F8A8F8A8D9B8D0197F1F79B8F00
:101C90008A8F3BC020E030E04FE753E46D817E81C6
:101CA0008F8198850E94DD148823F9F0F4F069850E
:101CB0007A858B859C850E94FC1325966CAF7DAF41
:101CC0008EAF9FAF259723968EAD9FAD23979D8FA7
:101CD0008C8F8C8D9D8D9F8F8E8F8E8D9F8D01977C
:101CE000F1F79F8F8E8F000017C06D817E818F81ED
:101CF00098850E94FC1329966CAF7DAF8EAF9FAF85
:101D0000299726969FAD26979D878D8588A388A1C4
:101D10008A95F1F788A3000082E290E0DC012C9123
:101D200082E290E02E7FFC0120830000C85BDF4F41
:101D30000FB6F894DEBF0FBECDBFDF91CF910895EF
:101D4000CF93DF93CDB7DEB76E970FB6F894DEBFB3
:101D50000FBECDBF0E942E0F000086E091E0DC0197
:101D60008C91882F90E0847099270097B1F382EBD3
:101D700090E0FC01108287E390E021E0DC012C93ED
:101D800010922B0210922A02000086E091E0FC01E2
:101D90008081882F90E0847099270097B1F7809117
:101DA0002A0290912B029A83898389819A819C01CE
:101DB000990F440B550B2F87388B498B5A8B6F85A6
:101DC000788989899A890E942D146B837C838D83FD
:101DD0009E832FE632E143E05CE36B817C818D8161
:101DE0009E810E94E2146B8B7C8B8D8B9E8B8B89EA
:101DF0009C89AD89BE898F839887A987BA8720E09F
:101E000030E84BEA53E46F81788589859A850E9492
:101E1000E2146F8B788F898F9A8F2F89388D498D37
:101E20005A8D2B873C874D875E876B857C858D859A
:101E30009E850E94F5136B8F7C8F8D8F9E8F4B8DAF
:101E40005C8D5A83498389819A816E960FB6F89486
:101E5000DEBF0FBECDBFDF91CF910895CF93DF934B
:101E6000CDB7DEB7C854D1090FB6F894DEBF0FBEA8
:101E7000CDBF82E290E0DC012C9182E290E0246010
:101E8000FC01208380E090E0A0E2B1E489839A83A2
:101E9000AB83BC832BEA3AEA4AEA50E469817A814F
:101EA0008B819C810E94E2146DA37EA38FA398A7CF
:101EB0008DA19EA1AFA1B8A58D839E83AF83B88766
:101EC00020E030E040E850E469817A818B819C8198
:101ED0000E94E21469A77AA78BA79CA789A59AA557
:101EE000ABA5BCA589879A87AB87BC8720E030E08B
:101EF00040E85FE36D817E818F8198850E947E132B
:101F000088231CF481E08D87E8C020E03FEF4FE795
:101F100057E469857A858B859C850E94DD1488232A
:101F200009F00CF49FC020E030E04AE754E46981F6
:101F30007A818B819C810E9483136DA77EA78FA7D6
:101F400098AB8DA59EA5AFA5B8A98E879F87A88BB6
:101F5000B98B20E030E04AE755E46E857F858889BB
:101F600099890E94E21469AB7AAB8BAB9CAB89A9CF
:101F70009AA9ABA9BCA98A8B9B8BAC8BBD8B20E0AB
:101F800030E040E85FE36A897B898C899D890E9403
:101F90007E1388232CF481E090E09F8B8E8B57C0BA
:101FA00020E03FEF4FE757E46A897B898C899D8960
:101FB0000E94DD148823D9F1D4F120E030E040E222
:101FC00051E46E857F85888999890E94E2146DAB02
:101FD0007EAB8FAB98AF8DA99EA9AFA9B8AD89A3F1
:101FE0009AA3ABA3BCA369A17AA18BA19CA10E94D7
:101FF000FC1369AF7AAF8BAF9CAFA9ADBAADBF8B05
:10200000AE8B10C080E991E0998F888F888D998D73
:102010000197F1F7998F888F00008E899F8901972A
:102020009F8B8E8B8E899F89009761F756C06A8936
:102030007B898C899D890E94FC1321966CAF7DAFB2
:102040008EAF9FAF2197EDADFEADFF8BEE8B8E89EE
:102050009F899B8F8A8F8A8D9B8D0197F1F79B8F2C
:102060008A8F3BC020E030E04FE753E46D817E81F2
:102070008F8198850E94DD148823F9F0F4F069853A
:102080007A858B859C850E94FC1325966CAF7DAF6D
:102090008EAF9FAF259723968EAD9FAD23979D8FD3
:1020A0008C8F8C8D9D8D9F8F8E8F8E8D9F8D0197A8
:1020B000F1F79F8F8E8F000017C06D817E818F8119
:1020C00098850E94FC1329966CAF7DAF8EAF9FAFB1
:1020D000299726969FAD26979D878D8588A388A1F1
:1020E0008A95F1F788A3000082E290E0DC012C9150
:1020F00082E290E02B7FFC0120830000C85BDF4F71
:102100000FB6F894DEBF0FBECDBFDF91CF9108951B
:10211000CF93DF93CDB7DEB76E970FB6F894DEBFDF
:102120000FBECDBF0E941611000086E091E0DC01D9
:102130008C91882F90E0827099270097B1F382EB01
:1021400090E0FC01108287E390E021E0DC012C9319
:1021500010922B0210922A02000086E091E0FC010E
:102160008081882F90E0827099270097B1F7809145
:102170002A0290912B029A83898389819A819C01FA
:10218000990F440B550B2F87388B498B5A8B6F85D2
:10219000788989899A890E942D146B837C838D8329
:1021A0009E832FE632E143E05CE36B817C818D818D
:1021B0009E810E94E2146B8B7C8B8D8B9E8B8B8916
:1021C0009C89AD89BE898F839887A987BA8720E0CB
:1021D00030E84BEA53E46F81788589859A850E94BF
:1021E000E2146F8B788F898F9A8F2F89388D498D64
:1021F0005A8D2B873C874D875E876B857C858D85C7
:102200009E850E94F5136B8F7C8F8D8F9E8F4B8DDB
:102210005C8D5A83498389819A816E960FB6F894B2
:10222000DEBF0FBECDBFDF91CF910895CF93DF9377
:10223000CDB7DEB7C854D1090FB6F894DEBF0FBED4
:10224000CDBF82E290E0DC012C9182E290E020613F
:10225000FC01208380E090E0A0E2B1E489839A83CE
:10226000AB83BC832BEA3AEA4AEA50E469817A817B
:102270008B819C810E94E2146DA37EA38FA398A7FB
:102280008DA19EA1AFA1B8A58D839E83AF83B88792
:1022900020E030E040E850E469817A818B819C81C4
:1022A0000E94E21469A77AA78BA79CA789A59AA583
:1022B000ABA5BCA589879A87AB87BC8720E030E0B7
:1022C00040E85FE36D817E818F8198850E947E1357
:1022D00088231CF481E08D87E8C020E03FEF4FE7C2
:1022E00057E469857A858B859C850E94DD14882357
:1022F00009F00CF49FC020E030E04AE754E4698123
:102300007A818B819C810E9483136DA77EA78FA702
:1023100098AB8DA59EA5AFA5B8A98E879F87A88BE2
:10232000B98B20E030E04AE755E46E857F858889E7
:1023300099890E94E21469AB7AAB8BAB9CAB89A9FB
:102340009AA9ABA9BCA98A8B9B8BAC8BBD8B20E0D7
:1023500030E040E85FE36A897B898C899D890E942F
:102360007E1388232CF481E090E09F8B8E8B57C0E6
:1023700020E03FEF4FE757E46A897B898C899D898C
:102380000E94DD148823D9F1D4F120E030E040E24E
:1023900051E46E857F85888999890E94E2146DAB2E
:1023A0007EAB8FAB98AF8DA99EA9AFA9B8AD89A31D
:1023B0009AA3ABA3BCA369A17AA18BA19CA10E9403
:1023C000FC1369AF7AAF8BAF9CAFA9ADBAADBF8B31
:1023D000AE8B10C080E991E0998F888F888D998DA0
:1023E0000197F1F7998F888F00008E899F89019757
:1023F0009F8B8E8B8E899F89009761F756C06A8963
:102400007B898C899D890E94FC1321966CAF7DAFDE
:102410008EAF9FAF2197EDADFEADFF8BEE8B8E891A
:102420009F899B8F8A8F8A8D9B8D0197F1F79B8F58
:102430008A8F3BC020E030E04FE753E46D817E811E
:102440008F8198850E94DD148823F9F0F4F0698566
:102450007A858B859C850E94FC1325966CAF7DAF99
:102460008EAF9FAF259723968EAD9FAD23979D8FFF
:102470008C8F8C8D9D8D9F8F8E8F8E8D9F8D0197D4
:10248000F1F79F8F8E8F000017C06D817E818F8145
:1024900098850E94FC1329966CAF7DAF8EAF9FAFDD
:1024A000299726969FAD26979D878D8588A388A11D
:1024B0008A95F1F788A3000082E290E0DC012C917C
:1024C00082E290E02F7EFC0120830000C85BDF4F9A
:1024D0000FB6F894DEBF0FBECDBFDF91CF91089548
:1024E0001F920F920FB60F9211248F939F93CF9349
:1024F000DF93CDB7DEB780912A0290912B0201962F
:1025000090932B0280932A020000DF91CF919F913C
:102510008F910F900FBE0F901F90189597FB072E6D
:1025200016F4009407D077FD09D00E94DB1207FC57
:1025300005D03EF4909581959F4F089570956195D3
:102540007F4F0895052E97FB1EF400940E94B91248
:1025500057FD07D00E94EF1207FC03D04EF40C94F5
:10256000B91250954095309521953F4F4F4F5F4F91
:10257000089590958095709561957F4F8F4F9F4FEF
:102580000895A29FB001B39FC001A39F700D811D4C
:102590001124911DB29F700D811D1124911D08956C
:1025A0000E94C112A59F900DB49F900DA49F800D15
:1025B000911D11240895AA1BBB1B51E107C0AA1F3E
:1025C000BB1FA617B70710F0A61BB70B881F991FD4
:1025D0005A95A9F780959095BC01CD010895A1E287
:1025E0001A2EAA1BBB1BFD010DC0AA1FBB1FEE1F8D
:1025F000FF1FA217B307E407F50720F0A21BB30BD8
:10260000E40BF50B661F771F881F991F1A9469F753
:1026100060957095809590959B01AC01BD01CF01AF
:1026200008955058BB27AA270E9429130C94A3147D
:102630000E94951438F00E949C1420F039F49F3FBA
:1026400019F426F40C9492140EF4E095E7FB0C9424
:102650008C14E92F0E94B41458F3BA176207730759
:102660008407950720F079F4A6F50C94D6140EF49F
:10267000E0950B2EBA2FA02D0B01B90190010C0192
:10268000CA01A0011124FF27591B99F0593F50F4AA
:10269000503E68F11A16F040A22F232F342F442702
:1026A000585FF3CF469537952795A795F0405395FA
:1026B000C9F77EF41F16BA0B620B730B840BBAF0CA
:1026C0009150A1F0FF0FBB1F661F771F881FC2F735
:1026D0000EC0BA0F621F731F841F48F48795779549
:1026E0006795B795F7959E3F08F0B0CF9395880F03
:1026F00008F09927EE0F9795879508950E94681422
:1027000008F481E008950E9497130C94A3140E948A
:102710009C1458F00E94951440F029F45F3F29F072
:102720000C948C1451110C94D7140C9492140E9494
:10273000B41468F39923B1F3552391F3951B550B0A
:10274000BB27AA2762177307840738F09F5F5F4F84
:10275000220F331F441FAA1FA9F335D00E2E3AF0C3
:10276000E0E832D091505040E695001CCAF72BD0DB
:10277000FE2F29D0660F771F881FBB1F261737072C
:102780004807AB07B0E809F0BB0B802DBF01FF275E
:1027900093585F4F3AF09E3F510578F00C948C149B
:1027A0000C94D7145F3FE4F3983ED4F38695779565
:1027B0006795B795F7959F5FC9F7880F911D969517
:1027C000879597F90895E1E0660F771F881FBB1F73
:1027D000621773078407BA0720F0621B730B840B20
:1027E000BA0BEE1F88F7E09508950E94FC136894D9
:1027F000B1110C94D71408950E94BC1488F09F570F
:1028000098F0B92F9927B751B0F0E1F0660F771F14
:10281000881F991F1AF0BA95C9F714C0B13091F00A
:102820000E94D614B1E008950C94D614672F782F27
:102830008827B85F39F0B93FCCF3869577956795CF
:10284000B395D9F73EF490958095709561957F4F3B
:102850008F4F9F4F0895E89409C097FB3EF49095E1
:102860008095709561957F4F8F4F9F4F9923A9F069
:10287000F92F96E9BB279395F695879577956795F8
:10288000B795F111F8CFFAF4BB0F11F460FF1BC03C
:102890006F5F7F4F8F4F9F4F16C0882311F096E9CF
:1028A00011C0772321F09EE8872F762F05C066237D
:1028B00071F096E8862F70E060E02AF09A95660F36
:1028C000771F881FDAF7880F9695879597F90895EF
:1028D000990F0008550FAA0BE0E8FEEF1616170631
:1028E000E807F907C0F012161306E407F50798F099
:1028F000621B730B840B950B39F40A2661F0232BB2
:10290000242B252B21F408950A2609F4A140A6952D
:102910008FEF811D811D089597F99F6780E870E012
:1029200060E008959FEF80EC089500240A94161645
:10293000170618060906089500240A9412161306AD
:10294000140605060895092E0394000C11F488233B
:1029500052F0BB0F40F4BF2B11F460FF04C06F5F57
:102960007F4F8F4F9F4F089557FD9058440F551F2D
:1029700059F05F3F71F04795880F97FB991F61F001
:102980009F3F79F087950895121613061406551F78
:10299000F2CF4695F1DF08C0161617061806991FE4
:1029A000F1CF86957105610508940895E894BB27D9
:1029B00066277727CB0197F908950E94681408F4D9
:1029C0008FEF08950E94F5140C94A3140E9495149F
:1029D00038F00E949C1420F0952311F00C948C1474
:1029E0000C94921411240C94D7140E94B41470F314
:1029F000959FC1F3950F50E0551F629FF001729FA4
:102A0000BB27F00DB11D639FAA27F00DB11DAA1FB2
:102A1000649F6627B00DA11D661F829F2227B00DFF
:102A2000A11D621F739FB00DA11D621F839FA00D8A
:102A3000611D221F749F3327A00D611D231F849FDA
:102A4000600D211D822F762F6A2F11249F57504031
:102A50009AF0F1F088234AF0EE0FFF1FBB1F661FAC
:102A6000771F881F91505040A9F79E3F510580F075
:102A70000C948C140C94D7145F3FE4F3983ED4F379
:102A8000869577956795B795F795E7959F5FC1F719
:102A9000FE2B880F911D9695879597F90895F894C8
:022AA000FFCF66
:102AA20003FF9FFF25FF0DFF99FF49FF41FF1FFF16
:102AB20001FF09FF11FFC1FF63FF85FF61FF71FF86
:00000001FF
