:100000000C9472000C9493000C9493000C94930045
:100010000C9493000C9493000C9493000C94930014
:100020000C9493000C9493000C9493000C94930004
:100030000C9493000C9493000C9493000C945F1711
:100040000C9493000C9403040C9433040C949300CC
:100050000C9490030C9493000C9493000C947002F5
:100060000C9493000C9493000C9493000C949300C4
:100070000C9493000C9493000C9493000C949300B4
:100080000C9498050C94C8050C9493000C942505C9
:100090000C9493000C9493000C9493000C94930094
:1000A0000C9493000C9493000C9493000C94930084
:1000B0000C9493000C9493000C9493000C94930074
:1000C0000C9493000C9493000C9493000C94930064
:1000D0000C9493000C9493000C9493000C94930054
:1000E0000C94930011241FBECFEFD1E2DEBFCDBF31
:1000F00000E00CBF12E0A0E0B2E0E0E8F4E300E0D2
:100100000BBF02C007900D92A432B107D9F722E0CD
:10011000A4E2B2E001C01D92A433B207E1F70E944D
:10012000BA060C943E1A0C940000CF93DF93CDB71F
:10013000DEB788EB90E028E4FC0120830000DF912B
:10014000CF910895CF93DF93CDB7DEB78CEB90E0DE
:1001500024EAFC01208300008CEB90E0FC0180810C
:100160008823D4F700000000DF91CF910895CF934A
:10017000DF93CDB7DEB78CEB90E024E9FC01208360
:100180000000DF91CF910895CF93DF930F92CDB709
:10019000DEB789838BEB90E02981FC0120838CEB17
:1001A00090E024E8FC01208300008CEB90E0FC014F
:1001B00080818823D4F7000000000F90DF91CF9159
:1001C0000895CF93DF93CDB7DEB78CEB90E024ECAE
:1001D000FC01208300008CEB90E0FC0180818823EF
:1001E000D4F78BEB90E0FC018081DF91CF910895F3
:1001F000CF93DF93CDB7DEB78CEB90E024E8FC0122
:10020000208300008CEB90E0FC0180818823D4F7F0
:100210008BEB90E0FC018081DF91CF910895CF932B
:10022000DF930F920F92CDB7DEB789836A830E9466
:10023000A20080ED0E94C40089810E94C4008A81CE
:100240000E94C4000E94B70000000F900F90DF9141
:10025000CF9108950F931F93CF93DF9300D0CDB725
:10026000DEB78B830E94A20080ED0E94C4008B81C8
:100270000E94C4000E94A20081ED0E94C4000E945E
:10028000E100882F90E0182F00270E94F800882FA7
:1002900090E0802B912B9A8389830E94B7008981FB
:1002A0009A810F900F900F90DF91CF911F910F9136
:1002B0000895CF93DF93CDB7DEB766970FB6F89466
:1002C000DEBF0FBECDBF83E40E942A019A838983DB
:1002D00089819A8188509F4F9A83898389819A81E5
:1002E0009C01990F440B550B2F87388B498B5A8BE8
:1002F0006F85788989899A890E941C196F8378870C
:1003000089879A8720E030E043E053E46F81788565
:1003100089859A850E9472186B8B7C8B8D8B9E8B46
:100320008B899C89AD89BE898B839C83AD83BE8379
:100330008B819C81AD81BE818B879C87AD87BE8779
:100340006B857C858D859E8566960FB6F894DEBF9D
:100350000FBECDBFDF91CF910895CF93DF93CDB77F
:10036000DEB766970FB6F894DEBF0FBECDBF85E44B
:100370000E942A019A83898389819A819C01990F1D
:10038000440B550B2F87388B498B5A8B6F85788997
:1003900089899A890E941C196F83788789879A872F
:1003A00020E030E043E053E46F81788589859A85C9
:1003B0000E9472186B8B7C8B8D8B9E8B8B899C899A
:1003C000AD89BE898B839C83AD83BE838B819C81E9
:1003D000AD81BE818B879C87AD87BE876B857C8511
:1003E0008D859E8566960FB6F894DEBF0FBECDBF95
:1003F000DF91CF910895CF93DF93CDB7DEB76697A6
:100400000FB6F894DEBF0FBECDBF87E40E942A016D
:100410009A83898389819A819C01990F440B550B9A
:100420002F87388B498B5A8B6F85788989899A8970
:100430000E941C196F83788789879A8720E030E0B3
:1004400043E053E46F81788589859A850E9472180C
:100450006B8B7C8B8D8B9E8B8B899C89AD89BE89A8
:100460008B839C83AD83BE838B819C81AD81BE8158
:100470008B879C87AD87BE876B857C858D859E85A8
:1004800066960FB6F894DEBF0FBECDBFDF91CF9159
:100490000895CF93DF93CDB7DEB760E08BE60E947F
:1004A0000F010000DF91CF910895CF93DF93CDB777
:1004B000DEB784E490E0FC01108285E490E0FC016A
:1004C000208185E490E02160FC0120838EE690E0AD
:1004D00021E0FC01208378940000DF91CF91089502
:1004E0001F920F920FB60F9211248F939F93CF9369
:1004F000DF93CDB7DEB7809124029091250201965B
:1005000090932502809324020000DF91CF919F9168
:100510008F910F900FBE0F901F901895CF93DF9380
:10052000CDB7DEB7EC970FB6F894DEBF0FBECDBFE8
:1005300069877A878B879C8719821A821B821C8223
:100540000E9459016D877E878F87988B2D853E8508
:100550004F85588920932A0230932B0240932C0216
:1005600050932D0280912402909125029C01990FB5
:10057000440B550B29A33AA34BA35CA369A17AA111
:100580008BA19CA10E941C196DA37EA38FA398A789
:100590008DA19EA1AFA1B8A589839A83AB83BC83AB
:1005A00086E490E0DC011C9285E390E021E0FC0110
:1005B000208310922502109224022DEB37E346E8A7
:1005C00057E369817A818B819C810E94D11969A747
:1005D0007AA78BA79CA729A53AA54BA55CA529833B
:1005E0003A834B835C838091260290912702A091ED
:1005F0002802B0912902898B9A8BAB8BBC8B80919E
:100600002A0290912B02A0912C02B0912D029C0104
:10061000AD0169897A898B899C890E9401186DA72F
:100620007EA78FA798AB2DA53EA54FA558A92D8BCA
:100630003E8B4F8B588F29813A814B815C816D892C
:100640007E898F89988D0E94D11969AB7AAB8BAB6B
:100650009CAB89A99AA9ABA9BCA9898F9A8FAB8FAA
:10066000BC8F20E030E040E050E4698D7A8D8B8DC6
:100670009C8D0E9472186DAB7EAB8FAB98AF2DA98D
:100680003EA94FA958AD2D833E834F8358872D81B6
:100690003E814F81588569857A858B859C850E942E
:1006A000011869AF7AAF8BAF9CAF89AD9AADABAD96
:1006B000BCAD89879A87AB87BC8780912A029091CD
:1006C0002B02A0912C02B0912D02809326029093D0
:1006D0002702A0932802B093290289859A85AB85C9
:1006E000BC858D8F9E8FAF8FB8A36D8D7E8D8F8DC6
:1006F00098A1EC960FB6F894DEBF0FBECDBFDF9188
:10070000CF910895CF93DF93CDB7DEB70E949500C8
:100710000E9449020E9455020000DF91CF91089586
:100720001F920F920FB60F9211240BB60F922F93B8
:100730008F939F93EF93FF93CF93DF93CDB7DEB764
:1007400088E890E0FC01808191810097D1F48AE8EB
:1007500090E0FC0180819181009799F488E091E01C
:10076000FC01208188E091E02F7DFC01208388E05E
:1007700091E0FC01208188E091E02F7EFC01208344
:1007800033C088E890E0FC0180819181009799F066
:1007900088E091E0FC01208188E091E02062FC018A
:1007A000208388E091E0FC01208188E091E02F7EA9
:1007B000FC01208319C08AE890E0FC0180819181CE
:1007C000009791F088E091E0FC01208188E091E0C1
:1007D0002F7DFC01208388E091E0FC01208188E0EE
:1007E00091E02061FC0120830000DF91CF91FF9117
:1007F000EF919F918F912F910F900BBE0F900FBE95
:100800000F901F9018951F920F920FB60F92112400
:100810000BB60F922F938F939F93EF93FF93CF93EA
:10082000DF93CDB7DEB788E890E0FC01808191814D
:100830008F3F980749F088E091E0FC01208188E033
:1008400091E02F7DFC0120830000DF91CF91FF918B
:10085000EF919F918F912F910F900BBE0F900FBE34
:100860000F901F9018951F920F920FB60F921124A0
:100870000BB60F922F938F939F93EF93FF93CF938A
:10088000DF93CDB7DEB78AE890E0FC0180819181EB
:100890008F3F980749F088E091E0FC01208188E0D3
:1008A00091E02F7EFC0120830000DF91CF91FF912A
:1008B000EF919F918F912F910F900BBE0F900FBED4
:1008C0000F901F901895CF93DF93CDB7DEB787E0D9
:1008D00091E0FC01208187E091E02062FC0120830F
:1008E00087E091E0FC01208187E091E02061FC013C
:1008F000208388E091E0FC01208188E091E02F7D59
:10090000FC01208388E091E0FC01208188E091E0F7
:100910002F7EFC01208380E890E0FC01108281E8BA
:1009200090E021E0FC01208388E890E0FC01118246
:1009300010828AE890E0FC01118210828FE690E03C
:1009400027E0FC01208380E00E94AA040000DF91E0
:10095000CF9108950F931F93CF93DF9300D000D0D2
:1009600000D0CDB7DEB7898389818C390CF461C0A2
:100970008981843611F00CF05CC0898188236CF188
:100980008AE890E0FC01118210828981482F880F4B
:10099000550B660B770B8FEF9FEFDC019A01AB01D4
:1009A0000E94BF176A837B838C839D8304E610E0DB
:1009B00020E030E06A817B818C819D81A9019801D2
:1009C0000E949117DA01C901AC01BD0188E890E0ED
:1009D0009A01FC01318320832CC088E890E0FC015F
:1009E000118210828981482F880F550B660B770B77
:1009F0008FEF9FEFDC019A01AB010E94BF176E835E
:100A00007F83888799870CE91FEF2FEF3FEF6E8177
:100A10007F8188859985A90198010E949117DA0143
:100A2000C901AC01BD018AE890E09A01FC01318363
:100A30002083000029960FB6F894DEBF0FBECDBF0D
:100A4000DF91CF911F910F9108951F920F920FB6D2
:100A50000F9211240BB60F922F938F939F93EF93C6
:100A6000FF93CF93DF93CDB7DEB788E990E0FC0129
:100A7000808191810097D1F48AE990E0FC01808126
:100A80009181009799F488E091E0FC01208188E051
:100A900091E02F77FC01208388E091E0FC01208128
:100AA00088E091E02F7BFC01208333C088E990E04F
:100AB000FC0180819181009799F088E091E0FC0130
:100AC000208188E091E02068FC01208388E091E0AB
:100AD000FC01208188E091E02F7BFC01208319C07C
:100AE0008AE990E0FC0180819181009791F088E093
:100AF00091E0FC01208188E091E02F77FC012083C8
:100B000088E091E0FC01208188E091E02064FC0114
:100B100020830000DF91CF91FF91EF919F918F9102
:100B20002F910F900BBE0F900FBE0F901F90189536
:100B30001F920F920FB60F9211240BB60F922F93A4
:100B40008F939F93EF93FF93CF93DF93CDB7DEB750
:100B500088E990E0FC01808191818F3F980749F0FE
:100B600088E091E0FC01208188E091E02F77FC0192
:100B700020830000DF91CF91FF91EF919F918F91A2
:100B80002F910F900BBE0F900FBE0F901F901895D6
:100B90001F920F920FB60F9211240BB60F922F9344
:100BA0008F939F93EF93FF93CF93DF93CDB7DEB7F0
:100BB0008AE990E0FC01808191818F3F980749F09C
:100BC00088E091E0FC01208188E091E02F7BFC012E
:100BD00020830000DF91CF91FF91EF919F918F9142
:100BE0002F910F900BBE0F900FBE0F901F90189576
:100BF000CF93DF93CDB7DEB787E091E0FC01208192
:100C000087E091E02068FC01208387E091E0FC010F
:100C1000208187E091E02064FC01208388E091E05E
:100C2000FC01208188E091E02F77FC01208388E09F
:100C300091E0FC01208188E091E02F7BFC01208382
:100C400080E990E0FC01108281E990E021E0FC0164
:100C5000208388E990E0FC01118210828AE990E00B
:100C6000FC011182108281E790E027E0FC012083E3
:100C700080E00E943F060000DF91CF9108950F931E
:100C80001F93CF93DF9300D000D000D0CDB7DEB755
:100C9000898389818C390CF461C08981843611F093
:100CA0000CF05CC0898188236CF18AE990E0FC013A
:100CB000118210828981482F880F550B660B770BA4
:100CC0008FEF9FEFDC019A01AB010E94BF176A838F
:100CD0007B838C839D8302E610E020E030E06A8114
:100CE0007B818C819D81A90198010E949117DA0175
:100CF000C901AC01BD0188E990E09A01FC01318392
:100D000020832CC088E990E0FC0111821082898147
:100D1000482F880F550B660B770B8FEF9FEFDC0189
:100D20009A01AB010E94BF176E837F8388879987E2
:100D30000EE91FEF2FEF3FEF6E817F818885998548
:100D4000A90198010E949117DA01C901AC01BD0106
:100D50008AE990E09A01FC01318320830000299602
:100D60000FB6F894DEBF0FBECDBFDF91CF911F91BC
:100D70000F910895CF93DF93CDB7DEB7C457D10954
:100D80000FB6F894DEBF0FBECDBF0E94440A0E948A
:100D9000860F1A86198681E090E09C878B871E86D5
:100DA0001D8680E590E0988B8F8788E691E09A8396
:100DB00089831A8A198A1C821B821C8A1B8A1E8AB2
:100DC0001D8A1E821D8281E090E0988F8F8B81E0CA
:100DD00090E098878F8384E290E0DC012C9184E29C
:100DE00090E0206CFC01208385E290E0DC012C91F6
:100DF00085E290E0206CFC0120838DE290E0DC0134
:100E00002C918DE290E02062FC0120838EE290E044
:100E1000DC012C918EE290E02062FC01208350C026
:100E20000E948F1398A38F8F0E9477159AA389A38E
:100E30000E94A7119CA38BA3209100023091010274
:100E400040910202509103022DA33EA34FA358A745
:100E50006DA17EA18FA198A50E948E0269A77AA795
:100E60008BA79CA789A59AA5ABA5BCA580930002DA
:100E700090930102A0930202B0930302209100021A
:100E80003091010240910202509103022DA73EA72A
:100E90004FA758AB6DA57EA58FA598A90E94E41811
:100EA00069966CAF7DAF8EAF9FAF699767964EAD79
:100EB0005FAD67975E8F4D8F89A19AA10E944F10F9
:100EC0008D859E858130910509F4AACF0BC10E94C2
:100ED000A7119A8B898B29893A898F859889D9019D
:100EE000A81BB90BCD019E8B8D8B89899A890E9495
:100EF0004F10209100023091010240910202509166
:100F0000030229AB3AAB4BAB5CAB69A97AA98BA9BD
:100F10009CA90E948E026DAB7EAB8FAB98AF8DA962
:100F20009EA9AFA9B8AD8093000290930102A0934F
:100F30000202B093030289819A819C01990F440BAC
:100F4000550B6D962CAF3DAF4EAF5FAF6D976D9665
:100F50006CAD7DAD8EAD9FAD6D970E941C1969AFD4
:100F60007AAF8BAF9CAF8091000290910102A0916B
:100F70000202B09103029C01AD0169AD7AAD8BAD67
:100F80009CAD0E940018A1966CAF7DAF8EAF9FAF55
:100F9000A197A1968CAD9DADAEADBFADA1972196A9
:100FA0008CAF9DAFAEAFBFAF219721966CAD7DAD3D
:100FB0008EAD9FAD21970E94E418A5966CAF7DAFD2
:100FC0008EAF9FAFA597A396AEADBFADA397BC8BD9
:100FD000AB8B8B899C898330910539F034F083E2A7
:100FE0000E94AA0489E10E943F068B899C898D3F5B
:100FF000BFEF9B0734F489E10E94AA0483E20E94B8
:101000003F068B819C81883C910539F034F083E266
:101010000E94AA0483E20E943F068B819C8188374C
:10102000910569F064F08B819C81873C910509F002
:1010300034F486E10E94AA0486E10E943F068B8177
:101040009C818C33910569F064F08B819C8187379A
:10105000910509F034F482E10E94AA0482E10E9421
:101060003F068B819C818431910569F064F08B810E
:101070009C818B33910509F034F48FE00E94AA041F
:101080008FE00E943F068B819C81009769F064F09D
:101090008B819C818331910509F034F48CE00E94AE
:1010A000AA048CE00E943F068B819C818B3FEFEF6E
:1010B0009E0734F48EEE0E94AA048EEE0E943F0634
:1010C0008B819C818C3FFFEF9F0764F08B819C811B
:1010D0008430910509F034F480E00E94AA0480E095
:1010E0000E943F0689859A858130910509F4EFCEEB
:1010F000C4C10E94A7119A8B898B29893A898F854F
:101100009889A901481B590BCA019E8B8D8B0E949F
:101110008F139A8F898F0E9477159C8F8B8F809168
:10112000000290910102A0910202B0910302259663
:101130008CAF9DAFAEAFBFAF259725966CAD7DADA3
:101140008EAD9FAD25970E948E0229966CAF7DAF24
:101150008EAF9FAF299729962CAD3DAD4EAD5FADBB
:10116000299720930002309301024093020250938A
:1011700003028091000290910102A0910202B091BD
:1011800003022D968CAF9DAFAEAFBFAF2D972D96BE
:101190006CAD7DAD8EAD9FAD2D970E94E418A996E4
:1011A0006CAF7DAF8EAF9FAFA997A796AEADBFAD29
:1011B000A797BE8FAD8F898D9A8D0E944F10898120
:1011C0009A819C01990F440B550BAD962CAF3DAF06
:1011D0004EAF5FAFAD97AD966CAD7DAD8EAD9FADB3
:1011E000AD970E941C1961966CAF7DAF8EAF9FAF1B
:1011F00061978091000290910102A0910202B0914A
:1012000003029C01AD0161966CAD7DAD8EAD9FADCD
:1012100061970E940018E1966CAF7DAF8EAF9FAFD3
:10122000E197E1968CAD9DADAEADBFADE197659612
:101230008CAF9DAFAEAFBFAF659765966CAD7DAD22
:101240008EAD9FAD65970E94E418E5966CAF7DAFBB
:101250008EAF9FAFE597E396AEADBFADE397BC838E
:10126000AB838D899E898B33910511F00CF053C0AF
:1012700081E090E09E838D838D899E8984319105E4
:1012800069F064F08D899E898B33910509F034F4FF
:101290008FE00E94AA048FE00E943F068D899E89FC
:1012A000009769F064F08D899E898331910509F07A
:1012B00034F48CE00E94AA048CE00E943F068D89E1
:1012C0009E898C3FBFEF9B0734F18D899E898430C6
:1012D000910509F004F580E00E94AA0480E00E94D4
:1012E0003F068EE290E0FC0120818EE290E02F7DAF
:1012F000DC012C9384E190E00E944B0F8EE290E0A1
:10130000FC0120818EE290E02062DC012C9384E1DC
:1013100090E00E944B0F8D899E898A35910519F0C6
:1013200014F01E821D828D819E81009709F093C06A
:101330008F819885009709F48EC08B819C818130C4
:10134000910539F034F082E30E94AA048DE20E94F4
:101350003F068B819C818330910539F034F082E324
:101360000E94AA0488E20E943F068B819C818830FB
:10137000910539F034F082E30E94AA0484E10E94CE
:101380003F068B819C818F3FBFEF9B0734F48DE23A
:101390000E94AA0482E30E943F068B819C818D3FBC
:1013A000EFEF9E0734F488E20E94AA0482E30E94D1
:1013B0003F068B819C81883FFFEF9F0734F484E1D7
:1013C0000E94AA0482E30E943F068B819C8199239C
:1013D0005CF08B819C81009709F034F482E30E94D9
:1013E000AA0482E30E943F060E94B80A8130910558
:1013F000B1F480E00E94AA0480E00E943F060E94AF
:10140000760C80ED97E00E944B0F82E30E94AA04C5
:1014100082E30E943F0684EB90E00E944B0F0E9403
:10142000A20A8130910541F482E090E098878F8391
:1014300083EB95E10E944F100E94A20A009759F495
:101440008F8198858230910511F418861F8280E083
:1014500090E00E944F108F819885009771F480E092
:1014600090E00E944F100E94100F8CE192E09A834E
:10147000898381E090E098878F838B859C8581307C
:10148000910509F436CE1CCDCF93DF93CDB7DEB7EF
:101490000E943C110E94360F0E9463040E94F805CE
:1014A0000E94820388E091E0FC01208188E091E0C5
:1014B0002E7FFC01208378940000DF91CF91089566
:1014C000CF93DF93CDB7DEB789E091E0FC01808157
:1014D000882F90E082709927009719F081E090E0C2
:1014E00002C080E090E0DF91CF910895CF93DF9329
:1014F000CDB7DEB789E091E0FC018081882F90E0D4
:1015000088709927009719F081E090E002C080E090
:1015100090E0DF91CF910895CF93DF93CDB7DEB701
:1015200089E091E0FC018081882F90E0807299270A
:10153000009719F081E090E002C080E090E0DF9138
:10154000CF910895CF93DF93CDB7DEB786E091E0DA
:10155000FC018081882F90E081709927009719F015
:1015600080E090E002C081E090E0DF91CF910895AB
:10157000CF93DF93CDB7DEB7C854D1090FB6F89437
:10158000DEBF0FBECDBF0E948F139A8389830E9456
:1015900077159C838B8389819A818035910509F029
:1015A0009CF480912E0290912F02009769F484E1BF
:1015B00090E00E944B0F81E090E090932F02809387
:1015C0002E0281E090E06CC189819A818A35910573
:1015D00009F00CF49AC080912E0290912F0200978E
:1015E00009F493C080E090E0A0EAB1E48D839E838B
:1015F000AF83B88720E030E04AE755E46D817E8113
:101600008F8198850E94D11969A77AA78BA79CA77B
:1016100089A59AA5ABA5BCA589879A87AB87BC8706
:1016200020E030E040E85FE369857A858B859C8522
:101630000E946D1888232CF481E090E09E878D87AE
:1016400055C020E03FEF4FE757E469857A858B85E9
:101650009C850E94CC198823D9F1D4F120E030E098
:1016600040E251E46D817E818F8198850E94D1197D
:101670006DA77EA78FA798AB8DA59EA5AFA5B8A98E
:1016800089A39AA3ABA3BCA369A17AA18BA19CA1B6
:101690000E94EB1869AB7AAB8BAB9CABA9A9BAA93A
:1016A000BE87AD8710C080E991E0988B8F878F85CA
:1016B00098890197F1F7988B8F8700008D859E851B
:1016C00001979E878D878D859E85009761F719C04C
:1016D00069857A858B859C850E94EB186DAB7EAB06
:1016E0008FAB98AF8DA99EA99E878D878D859E858E
:1016F0009A8B898B89899A890197F1F79A8B898BC3
:10170000000010922F0210922E028B819C81803556
:10171000910509F09CF4809130029091310200977C
:1017200069F484E190E00E944B0F81E090E0909397
:1017300031028093300281E090E0B2C08B819C81C5
:101740008A35910509F00CF4A8C08091300290917F
:101750003102009709F4A4C080E090E0A0EAB1E46F
:101760008B8B9C8BAD8BBE8B20E030E04AE755E441
:101770006B897C898D899E890E94D11969AF7AAF66
:101780008BAF9CAF89AD9AADABADBCAD8F8B988F55
:10179000A98FBA8F20E030E040E85FE36F89788D51
:1017A000898D9A8D0E946D1888232CF481E090E039
:1017B0009C8F8B8F62C020E03FEF4FE757E46F892B
:1017C000788D898D9A8D0E94CC19882309F00CF4AC
:1017D00042C020E030E040E251E46B897C898D8991
:1017E0009E890E94D11921966CAF7DAF8EAF9FAFBD
:1017F000219721968CAD9DADAEADBFAD21978DA348
:101800009EA3AFA3B8A76DA17EA18FA198A50E94AA
:10181000EB1825966CAF7DAF8EAF9FAF25972396C3
:10182000AEADBFAD2397BC8FAB8F10C080E991E008
:101830009E8F8D8F8D8D9E8D0197F1F79E8F8D8F51
:1018400000008B8D9C8D01979C8F8B8F8B8D9C8D39
:10185000009761F71DC06F89788D898D9A8D0E94E0
:10186000EB1829966CAF7DAF8EAF9FAF2997279667
:101870008EAD9FAD27979C8F8B8F8B8D9C8D98A362
:101880008F8F8F8D98A10197F1F798A38F8F00000C
:10189000109231021092300203C080E090E000C04C
:1018A000C85BDF4F0FB6F894DEBF0FBECDBFDF9130
:1018B000CF910895CF93DF93CDB7DEB785E290E067
:1018C000FC01308185E290E020E82327FC012083A1
:1018D00085E290E0FC01308185E290E020E423275E
:1018E000FC0120830000DF91CF910895CF93DF9317
:1018F000CDB7DEB78EE290E0FC0120818EE290E071
:101900002F7DFC01208388E290E00E944B0F8EE245
:1019100090E0FC0120818EE290E02062FC012083B7
:1019200080E590E00E944B0F8EE290E0FC01208168
:101930008EE290E02F7DFC01208388E290E00E94FF
:101940004B0F8EE290E0FC0120818EE290E020625D
:10195000FC01208386E990E00E944B0F8EE290E02C
:10196000FC0120818EE290E02F7DFC01208386E443
:1019700090E00E944B0F8EE290E0FC0120818EE20D
:1019800090E02062FC0120830000DF91CF91089558
:10199000CF93DF93CDB7DEB7C854D1090FB6F89413
:1019A000DEBF0FBECDBF98878F832091000230919C
:1019B0000102409102025091030229873A874B8726
:1019C0005C8769857A858B859C850E948E026D87F0
:1019D0007E878F87988B8D859E85AF85B88980930C
:1019E000000290930102A0930202B09303028F8140
:1019F00098859C01990F440B550B2DA73EA74FA727
:101A000058AB6DA57EA58FA598A90E941C19698B5E
:101A10007A8B8B8B9C8B8091000290910102A0911C
:101A20000202B09103029C01AD0169897A898B8918
:101A30009C890E94001869AB7AAB8BAB9CAB89A9DF
:101A40009AA9ABA9BCA98D8B9E8BAF8BB88F6D89E2
:101A50007E898F89988D0E94E4186DAB7EAB8FAB29
:101A600098AFADA9BEA9BC83AB8381E090E09A8317
:101A70008983E0C02091000230910102409102026E
:101A800050910302298F3A8F4B8F5C8F698D7A8D2D
:101A90008B8D9C8D0E948E026D8F7E8F8F8F98A371
:101AA0008D8D9E8DAF8DB8A1809300029093010221
:101AB000A0930202B09303028F8198859C01990F35
:101AC000440B550B29AF3AAF4BAF5CAF69AD7AAD64
:101AD0008BAD9CAD0E941C1969A37AA38BA39CA318
:101AE0008091000290910102A0910202B091030244
:101AF0009C01AD0169A17AA18BA19CA10E94001853
:101B000021966CAF7DAF8EAF9FAF219721968CADA4
:101B10009DADAEADBFAD21978DA39EA3AFA3B8A7DA
:101B20006DA17EA18FA198A50E94E41825966CAFA7
:101B30007DAF8EAF9FAF25972396AEADBFAD2397F8
:101B4000BC83AB83209100023091010240910202DC
:101B50005091030229A73AA74BA75CA769A57AA5CC
:101B60008BA59CA50E94E41829966CAF7DAF8EAF23
:101B70009FAF299727964EAD5FAD27975E834D8324
:101B80008D819E810E944F108B819C81009739F03E
:101B900034F089E10E94AA0487EE0E943F068B81FF
:101BA0009C818A30910539F034F083E20E94AA04C6
:101BB0008DED0E943F068B819C818431910539F027
:101BC00034F08DE20E94AA0483ED0E943F068B81CF
:101BD0009C81992334F487EE0E94AA0489E10E9433
:101BE0003F068B819C81863F5FEF950734F48DED36
:101BF0000E94AA0483E20E943F068B819C818C3E56
:101C0000AFEF9A0734F483ED0E94AA048DE20E949C
:101C10003F068B819C8199236CF08B819C8100977E
:101C200009F044F480E00E94AA0480E00E943F068C
:101C30001A82198289819A818130910509F41ACF1B
:101C400000000000C85BDF4F0FB6F894DEBF0FBE88
:101C5000CDBFDF91CF910895CF93DF93CDB7DEB79E
:101C6000A4970FB6F894DEBF0FBECDBF9E838D83C1
:101C700078876F831A821982C0C020910002309148
:101C80000102409102025091030229873A874B8753
:101C90005C8769857A858B859C850E948E026D871D
:101CA0007E878F87988B8D859E85AF85B889809339
:101CB000000290930102A0930202B09303028F816D
:101CC00098859C01990F440B550B298F3A8F4B8FA8
:101CD0005C8F698D7A8D8B8D9C8D0E941C19698B10
:101CE0007A8B8B8B9C8B8091000290910102A0914A
:101CF0000202B09103029C01AD0169897A898B8946
:101D00009C890E9400186D8F7E8F8F8F98A38D8D78
:101D10009E8DAF8DB8A18D8B9E8BAF8BB88F6D894B
:101D20007E898F89988D0E94E41869A37AA38BA37A
:101D30009CA3A9A1BAA1BC83AB8389819A810E948B
:101D40004F108B819C818130910539F034F082E312
:101D50000E94AA048DE20E943F068B819C81833001
:101D6000910539F034F082E30E94AA0488E20E94CF
:101D70003F068B819C818830910539F034F082E3F5
:101D80000E94AA0484E10E943F068B819C818F3FC0
:101D9000BFEF9B0734F48DE20E94AA0482E30E9405
:101DA0003F068B819C818D3F2FEF920734F488E2B0
:101DB0000E94AA0482E30E943F068B819C81883F97
:101DC0003FEF930734F484E10E94AA0482E30E9467
:101DD0003F068B819C8199235CF08B819C810097CD
:101DE00009F034F482E30E94AA0482E30E943F06D1
:101DF00089819A8101969A83898329813A818D818B
:101E00009E81281739070CF438CF00000000A496F3
:101E10000FB6F894DEBF0FBECDBFDF91CF9108950E
:101E2000CF93DF93CDB7DEB784EF91E00E944B0FE5
:101E300068E671E084E690E00E942C0E82EC91E06E
:101E40000E94C80C62EC71E084EB90E00E942C0EC2
:101E50008CE192E00E94C80C6CE172E086E490E0B4
:101E60000E942C0E0000DF91CF910895CF93DF9355
:101E7000CDB7DEB780EA90E0FC01108281EA90E005
:101E8000FC01208181EA90E02260FC0120830000B7
:101E9000DF91CF910895CF93DF9300D000D0CDB7DD
:101EA000DEB79E838D838D819E8121E230E0B90172
:101EB0000E947D17CB019C838B831A82198214C0E8
:101EC00089E390E0FC018081882F90E08170992760
:101ED000009751F089E390E021E0FC0120838981A3
:101EE0009A8101969A83898329813A818B819C8189
:101EF000281739072CF3000000000F900F900F9067
:101F00000F900F900F90DF91CF910895CF93DF93B3
:101F1000CDB7DEB781E091E0FC01208181E091E066
:101F20002062FC01208381E091E0FC01208181E0BE
:101F300091E02061FC01208383E390E0FC0120819B
:101F400083E390E02062FC01208382E091E0FC01C9
:101F5000208182E091E02F7EFC01208384E390E0E9
:101F6000FC01208184E390E02F7DFC0120830000B0
:101F7000DF91CF910895CF93DF9300D00F920F920E
:101F8000CDB7DEB78D831A82198239C08D81082EB4
:101F9000000C990B817099279C838B838D8185958B
:101FA0008D838B819C81009751F082E091E0FC0150
:101FB000208182E091E02062FC01208309C082E060
:101FC00091E0FC01208182E091E02F7DFC012083E3
:101FD00082E091E0FC01208182E091E02061FC013F
:101FE000208382E091E0FC01208182E091E02F7E5D
:101FF000FC01208389819A8101969A838983898152
:102000009A818730910511F208F2000000000F90CC
:102010000F900F900F900F90DF91CF910895CF9375
:10202000DF930F920F92CDB7DEB79A83898380E159
:1020300090E0098002C0880F991F0A94E2F70E947D
:10204000BB0F00000F900F90DF91CF910895CF93B9
:10205000DF9300D0CDB7DEB789837B836A83898124
:102060000E94BB0F8A819B810E940F1084E390E045
:10207000FC01208184E390E02062FC01208384E362
:1020800090E0FC01208184E390E02F7DFC0120831F
:1020900000000F900F900F90DF91CF910895CF9394
:1020A000DF93CDB7DEB7A6970FB6F894DEBF0FBEAD
:1020B000CDBF9A8B898B1A821982CCC049895A89E3
:1020C0009A01ADECBCEC0E94B0179C0136952795A7
:1020D0003695279536952795C901880F991F880F42
:1020E000991F820F931F880F991F9A01281B390B84
:1020F000C901880F991F8C5F9D4FDC018D919C91C8
:10210000282F89819A81BC01822F0E9427108989FA
:102110009A899C01ADECBCEC0E94B017969587950E
:1021200096958795969587959A8B898B80E090E018
:10213000A0E8BFE38B839C83AD83BE8320E030E0C7
:102140004AE755E46B817C818D819E810E94D11983
:102150006F8B788F898F9A8F8F89988DA98DBA8D83
:102160008F839887A987BA8720E030E040E85FE353
:102170006F81788589859A850E946D1888232CF453
:1021800081E090E09C878B8755C020E03FEF4FE7D0
:1021900057E46F81788589859A850E94CC198823B8
:1021A000D9F1D4F120E030E040E251E46B817C8150
:1021B0008D819E810E94D1196B8F7C8F8D8F9E8F18
:1021C0008B8D9C8DAD8DBE8D8B8B9C8BAD8BBE8B8B
:1021D0006B897C898D899E890E94EB186F8F78A30B
:1021E00089A39AA3AF8DB8A1BC87AB8710C080E943
:1021F00091E09E878D878D859E850197F1F79E875B
:102200008D8700008B859C8501979C878B878B85AC
:102210009C85009761F719C06F81788589859A85BB
:102220000E94EB186BA37CA38DA39EA3EBA1FCA142
:10223000FC87EB878B859C85988B8F878F8598890A
:102240000197F1F7988B8F87000089819A81019619
:102250009A83898389819A818330910509F00CF4EE
:102260002DCF00000000A6960FB6F894DEBF0FBE7B
:10227000CDBFDF91CF910895CF93DF93CDB7DEB778
:1022800087E091E0FC01208187E091E0277FFC015D
:10229000208381E290E0FC01208181E290E02160D6
:1022A000FC01208382E290E0FC01208182E290E048
:1022B0002E7FFC01208387E091E0FC01208187E0F4
:1022C00091E02D7FFC01208381E290E0FC012081E0
:1022D00081E290E02061FC01208382E290E0FC0139
:1022E000208182E290E02F7EFC01208387E091E054
:1022F000FC01208187E091E02B7FFC01208381E2BB
:1023000090E0FC01208181E290E02460FC012083C8
:1023100082E290E0FC01208182E290E02B7FFC01D0
:10232000208380EB90E0FC01108281EB90E0FC01C7
:10233000208181EB90E02160FC01208380E790E028
:1023400021E0FC0120830000DF91CF910895CF931D
:10235000DF93CDB7DEB76E970FB6F894DEBF0FBE32
:10236000CDBF0E943512000086E091E0DC018C9127
:10237000882F90E0887099270097B1F382EB90E066
:10238000FC01108287E390E021E0DC012C931092A5
:10239000330210923202000086E091E0FC0180815D
:1023A000882F90E0887099270097B1F780913202CA
:1023B000909133029A83898389819A819C01990F34
:1023C000440B550B2F87388B498B5A8B6F85788937
:1023D00089899A890E941C196B837C838D839E83D3
:1023E0002FE632E143E05CE36B817C818D819E814D
:1023F0000E94D1196B8B7C8B8D8B9E8B8B899C89DA
:10240000AD89BE898F839887A987BA8720E030E895
:102410004BEA53E46F81788589859A850E94D119AA
:102420006F8B788F898F9A8F2F89388D498D5A8D30
:102430002B873C874D875E876B857C858D859E8548
:102440000E94E4186B8F7C8F8D8F9E8F4B8D5C8DDF
:102450005A83498389819A816E960FB6F894DEBFBC
:102460000FBECDBFDF91CF910895CF93DF93CDB74E
:10247000DEB7C854D1090FB6F894DEBF0FBECDBF8A
:1024800082E290E0DC012C9182E290E02160FC018C
:10249000208380E090E0A0E2B1E489839A83AB835B
:1024A000BC832BEA3AEA4AEA50E469817A818B815B
:1024B0009C810E94D1196DA37EA38FA398A78DA1A3
:1024C0009EA1AFA1B8A58D839E83AF83B88720E07E
:1024D00030E040E850E469817A818B819C810E94E0
:1024E000D11969A77AA78BA79CA789A59AA5ABA59F
:1024F000BCA589879A87AB87BC8720E030E040E89D
:102500005FE36D817E818F8198850E946D1888239D
:102510001CF481E08D87E8C020E03FEF4FE757E4EF
:1025200069857A858B859C850E94CC19882309F062
:102530000CF49FC020E030E04AE754E469817A81DE
:102540008B819C810E9472186DA77EA78FA798AB84
:102550008DA59EA5AFA5B8A98E879F87A88BB98B9F
:1025600020E030E04AE755E46E857F8588899989C7
:102570000E94D11969AB7AAB8BAB9CAB89A99AA9A4
:10258000ABA9BCA98A8B9B8BAC8BBD8B20E030E0C8
:1025900040E85FE36A897B898C899D890E946D1878
:1025A00088232CF481E090E09F8B8E8B57C020E035
:1025B0003FEF4FE757E46A897B898C899D890E94A8
:1025C000CC198823D9F1D4F120E030E040E251E485
:1025D0006E857F85888999890E94D1196DAB7EAB04
:1025E0008FAB98AF8DA99EA9AFA9B8AD89A39AA3C7
:1025F000ABA3BCA369A17AA18BA19CA10E94EB18FB
:1026000069AF7AAF8BAF9CAFA9ADBAADBF8BAE8BC4
:1026100010C080E991E0998F888F888D998D0197FE
:10262000F1F7998F888F00008E899F8901979F8B82
:102630008E8B8E899F89009761F756C06A897B8946
:102640008C899D890E94EB1821966CAF7DAF8EAF6F
:102650009FAF2197EDADFEADFF8BEE8B8E899F89ED
:102660009B8F8A8F8A8D9B8D0197F1F79B8F8A8F25
:102670003BC020E030E04FE753E46D817E818F81E5
:1026800098850E94CC198823F9F0F4F069857A8541
:102690008B859C850E94EB1825966CAF7DAF8EAF25
:1026A0009FAF259723968EAD9FAD23979D8F8C8FDF
:1026B0008C8D9D8D9F8F8E8F8E8D9F8D0197F1F7C5
:1026C0009F8F8E8F000017C06D817E818F819885CE
:1026D0000E94EB1829966CAF7DAF8EAF9FAF299704
:1026E00026969FAD26979D878D8588A388A18A957C
:1026F000F1F788A3000082E290E0DC012C9182E2F5
:1027000090E02E7FFC0120830000C85BDF4F0FB6F6
:10271000F894DEBF0FBECDBFDF91CF910895CF9368
:10272000DF93CDB7DEB76E970FB6F894DEBF0FBE5E
:10273000CDBF0E941D14000086E091E0DC018C9169
:10274000882F90E0847099270097B1F382EB90E096
:10275000FC01108287E390E021E0DC012C931092D1
:10276000330210923202000086E091E0FC01808189
:10277000882F90E0847099270097B1F780913202FA
:10278000909133029A83898389819A819C01990F60
:10279000440B550B2F87388B498B5A8B6F85788963
:1027A00089899A890E941C196B837C838D839E83FF
:1027B0002FE632E143E05CE36B817C818D819E8179
:1027C0000E94D1196B8B7C8B8D8B9E8B8B899C8906
:1027D000AD89BE898F839887A987BA8720E030E8C2
:1027E0004BEA53E46F81788589859A850E94D119D7
:1027F0006F8B788F898F9A8F2F89388D498D5A8D5D
:102800002B873C874D875E876B857C858D859E8574
:102810000E94E4186B8F7C8F8D8F9E8F4B8D5C8D0B
:102820005A83498389819A816E960FB6F894DEBFE8
:102830000FBECDBFDF91CF910895CF93DF93CDB77A
:10284000DEB7C854D1090FB6F894DEBF0FBECDBFB6
:1028500082E290E0DC012C9182E290E02460FC01B5
:10286000208380E090E0A0E2B1E489839A83AB8387
:10287000BC832BEA3AEA4AEA50E469817A818B8187
:102880009C810E94D1196DA37EA38FA398A78DA1CF
:102890009EA1AFA1B8A58D839E83AF83B88720E0AA
:1028A00030E040E850E469817A818B819C810E940C
:1028B000D11969A77AA78BA79CA789A59AA5ABA5CB
:1028C000BCA589879A87AB87BC8720E030E040E8C9
:1028D0005FE36D817E818F8198850E946D188823CA
:1028E0001CF481E08D87E8C020E03FEF4FE757E41C
:1028F00069857A858B859C850E94CC19882309F08F
:102900000CF49FC020E030E04AE754E469817A810A
:102910008B819C810E9472186DA77EA78FA798ABB0
:102920008DA59EA5AFA5B8A98E879F87A88BB98BCB
:1029300020E030E04AE755E46E857F8588899989F3
:102940000E94D11969AB7AAB8BAB9CAB89A99AA9D0
:10295000ABA9BCA98A8B9B8BAC8BBD8B20E030E0F4
:1029600040E85FE36A897B898C899D890E946D18A4
:1029700088232CF481E090E09F8B8E8B57C020E061
:102980003FEF4FE757E46A897B898C899D890E94D4
:10299000CC198823D9F1D4F120E030E040E251E4B1
:1029A0006E857F85888999890E94D1196DAB7EAB30
:1029B0008FAB98AF8DA99EA9AFA9B8AD89A39AA3F3
:1029C000ABA3BCA369A17AA18BA19CA10E94EB1827
:1029D00069AF7AAF8BAF9CAFA9ADBAADBF8BAE8BF1
:1029E00010C080E991E0998F888F888D998D01972B
:1029F000F1F7998F888F00008E899F8901979F8BAF
:102A00008E8B8E899F89009761F756C06A897B8972
:102A10008C899D890E94EB1821966CAF7DAF8EAF9B
:102A20009FAF2197EDADFEADFF8BEE8B8E899F8919
:102A30009B8F8A8F8A8D9B8D0197F1F79B8F8A8F51
:102A40003BC020E030E04FE753E46D817E818F8111
:102A500098850E94CC198823F9F0F4F069857A856D
:102A60008B859C850E94EB1825966CAF7DAF8EAF51
:102A70009FAF259723968EAD9FAD23979D8F8C8F0B
:102A80008C8D9D8D9F8F8E8F8E8D9F8D0197F1F7F1
:102A90009F8F8E8F000017C06D817E818F819885FA
:102AA0000E94EB1829966CAF7DAF8EAF9FAF299730
:102AB00026969FAD26979D878D8588A388A18A95A8
:102AC000F1F788A3000082E290E0DC012C9182E221
:102AD00090E02B7FFC0120830000C85BDF4F0FB626
:102AE000F894DEBF0FBECDBFDF91CF910895CF9395
:102AF000DF93CDB7DEB76E970FB6F894DEBF0FBE8B
:102B0000CDBF0E940516000086E091E0DC018C91AB
:102B1000882F90E0827099270097B1F382EB90E0C4
:102B2000FC01108287E390E021E0DC012C931092FD
:102B3000330210923202000086E091E0FC018081B5
:102B4000882F90E0827099270097B1F78091320228
:102B5000909133029A83898389819A819C01990F8C
:102B6000440B550B2F87388B498B5A8B6F8578898F
:102B700089899A890E941C196B837C838D839E832B
:102B80002FE632E143E05CE36B817C818D819E81A5
:102B90000E94D1196B8B7C8B8D8B9E8B8B899C8932
:102BA000AD89BE898F839887A987BA8720E030E8EE
:102BB0004BEA53E46F81788589859A850E94D11903
:102BC0006F8B788F898F9A8F2F89388D498D5A8D89
:102BD0002B873C874D875E876B857C858D859E85A1
:102BE0000E94E4186B8F7C8F8D8F9E8F4B8D5C8D38
:102BF0005A83498389819A816E960FB6F894DEBF15
:102C00000FBECDBFDF91CF910895CF93DF93CDB7A6
:102C1000DEB7C854D1090FB6F894DEBF0FBECDBFE2
:102C200082E290E0DC012C9182E290E02061FC01E4
:102C3000208380E090E0A0E2B1E489839A83AB83B3
:102C4000BC832BEA3AEA4AEA50E469817A818B81B3
:102C50009C810E94D1196DA37EA38FA398A78DA1FB
:102C60009EA1AFA1B8A58D839E83AF83B88720E0D6
:102C700030E040E850E469817A818B819C810E9438
:102C8000D11969A77AA78BA79CA789A59AA5ABA5F7
:102C9000BCA589879A87AB87BC8720E030E040E8F5
:102CA0005FE36D817E818F8198850E946D188823F6
:102CB0001CF481E08D87E8C020E03FEF4FE757E448
:102CC00069857A858B859C850E94CC19882309F0BB
:102CD0000CF49FC020E030E04AE754E469817A8137
:102CE0008B819C810E9472186DA77EA78FA798ABDD
:102CF0008DA59EA5AFA5B8A98E879F87A88BB98BF8
:102D000020E030E04AE755E46E857F85888999891F
:102D10000E94D11969AB7AAB8BAB9CAB89A99AA9FC
:102D2000ABA9BCA98A8B9B8BAC8BBD8B20E030E020
:102D300040E85FE36A897B898C899D890E946D18D0
:102D400088232CF481E090E09F8B8E8B57C020E08D
:102D50003FEF4FE757E46A897B898C899D890E9400
:102D6000CC198823D9F1D4F120E030E040E251E4DD
:102D70006E857F85888999890E94D1196DAB7EAB5C
:102D80008FAB98AF8DA99EA9AFA9B8AD89A39AA31F
:102D9000ABA3BCA369A17AA18BA19CA10E94EB1853
:102DA00069AF7AAF8BAF9CAFA9ADBAADBF8BAE8B1D
:102DB00010C080E991E0998F888F888D998D019757
:102DC000F1F7998F888F00008E899F8901979F8BDB
:102DD0008E8B8E899F89009761F756C06A897B899F
:102DE0008C899D890E94EB1821966CAF7DAF8EAFC8
:102DF0009FAF2197EDADFEADFF8BEE8B8E899F8946
:102E00009B8F8A8F8A8D9B8D0197F1F79B8F8A8F7D
:102E10003BC020E030E04FE753E46D817E818F813D
:102E200098850E94CC198823F9F0F4F069857A8599
:102E30008B859C850E94EB1825966CAF7DAF8EAF7D
:102E40009FAF259723968EAD9FAD23979D8F8C8F37
:102E50008C8D9D8D9F8F8E8F8E8D9F8D0197F1F71D
:102E60009F8F8E8F000017C06D817E818F81988526
:102E70000E94EB1829966CAF7DAF8EAF9FAF29975C
:102E800026969FAD26979D878D8588A388A18A95D4
:102E9000F1F788A3000082E290E0DC012C9182E24D
:102EA00090E02F7EFC0120830000C85BDF4F0FB64F
:102EB000F894DEBF0FBECDBFDF91CF9108951F9272
:102EC0000F920FB60F9211248F939F93CF93DF939E
:102ED000CDB7DEB780913202909133020196909384
:102EE0003302809332020000DF91CF919F918F9146
:102EF0000F900FBE0F901F90189597FB072E16F49A
:102F0000009407D077FD09D00E94CA1707FC05D0AE
:102F10003EF4909581959F4F0895709561957F4FF0
:102F20000895052E97FB1EF400940E94A81757FDE4
:102F300007D00E94DE1707FC03D04EF40C94A817AC
:102F400050954095309521953F4F4F4F5F4F0895D5
:102F500090958095709561957F4F8F4F9F4F089505
:102F6000A29FB001B39FC001A39F700D811D1124CA
:102F7000911DB29F700D811D1124911D08950E9415
:102F8000B017A59F900DB49F900DA49F800D911D2B
:102F900011240895AA1BBB1B51E107C0AA1FBB1F28
:102FA000A617B70710F0A61BB70B881F991F5A95D5
:102FB000A9F780959095BC01CD010895A1E21A2E44
:102FC000AA1BBB1BFD010DC0AA1FBB1FEE1FFF1FCD
:102FD000A217B307E407F50720F0A21BB30BE40B1D
:102FE000F50B661F771F881F991F1A9469F7609564
:102FF0007095809590959B01AC01BD01CF0108951E
:103000005058BB27AA270E9418180C9492190E94A6
:10301000841938F00E948B1920F039F49F3F19F47D
:1030200026F40C9481190EF4E095E7FB0C947B19BF
:10303000E92F0E94A31958F3BA1762077307840790
:10304000950720F079F4A6F50C94C5190EF4E095D7
:103050000B2EBA2FA02D0B01B90190010C01CA0152
:10306000A0011124FF27591B99F0593F50F4503EFD
:1030700068F11A16F040A22F232F342F4427585FEF
:10308000F3CF469537952795A795F0405395C9F707
:103090007EF41F16BA0B620B730B840BBAF09150BF
:1030A000A1F0FF0FBB1F661F771F881FC2F70EC05E
:1030B000BA0F621F731F841F48F487957795679531
:1030C000B795F7959E3F08F0B0CF9395880F08F01D
:1030D0009927EE0F9795879508950E94571908F440
:1030E00081E008950E9486180C9492190E948B1911
:1030F00058F00E94841940F029F45F3F29F00C94A5
:103100007B1951110C94C6190C9481190E94A319B2
:1031100068F39923B1F3552391F3951B550BBB2706
:10312000AA2762177307840738F09F5F5F4F220F4B
:10313000331F441FAA1FA9F335D00E2E3AF0E0E842
:1031400032D091505040E695001CCAF72BD0FE2F8C
:1031500029D0660F771F881FBB1F26173707480720
:10316000AB07B0E809F0BB0B802DBF01FF279358D8
:103170005F4F3AF09E3F510578F00C947B190C9408
:10318000C6195F3FE4F3983ED4F38695779567952B
:10319000B795F7959F5FC9F7880F911D969587950D
:1031A00097F90895E1E0660F771F881FBB1F62172C
:1031B00073078407BA0720F0621B730B840BBA0BEA
:1031C000EE1F88F7E09508950E94EB186894B111FE
:1031D0000C94C61908950E94AB1988F09F5798F077
:1031E000B92F9927B751B0F0E1F0660F771F881F0C
:1031F000991F1AF0BA95C9F714C0B13091F00E9426
:10320000C519B1E008950C94C519672F782F882748
:10321000B85F39F0B93FCCF3869577956795B3954C
:10322000D9F73EF490958095709561957F4F8F4FBB
:103230009F4F0895E89409C097FB3EF490958095C0
:10324000709561957F4F8F4F9F4F9923A9F0F92F6C
:1032500096E9BB279395F695879577956795B795EA
:10326000F111F8CFFAF4BB0F11F460FF1BC06F5FD0
:103270007F4F8F4F9F4F16C0882311F096E911C0E2
:10328000772321F09EE8872F762F05C0662371F003
:1032900096E8862F70E060E02AF09A95660F771F17
:1032A000881FDAF7880F9695879597F90895990FF3
:1032B0000008550FAA0BE0E8FEEF16161706E80700
:1032C000F907C0F012161306E407F50798F0621B21
:1032D000730B840B950B39F40A2661F0232B242BF6
:1032E000252B21F408950A2609F4A140A6958FEF15
:1032F000811D811D089597F99F6780E870E060E067
:1033000008959FEF80EC089500240A94161617067E
:1033100018060906089500240A94121613061406C6
:1033200005060895092E0394000C11F4882352F029
:10333000BB0F40F4BF2B11F460FF04C06F5F7F4FE1
:103340008F4F9F4F089557FD9058440F551F59F0C8
:103350005F3F71F04795880F97FB991F61F09F3F82
:1033600079F087950895121613061406551FF2CFAB
:103370004695F1DF08C0161617061806991FF1CFFB
:1033800086957105610508940895E894BB27662722
:103390007727CB0197F908950E94571908F48FEF0A
:1033A00008950E94E4190C9492190E94841938F02F
:1033B0000E948B1920F0952311F00C947B190C942A
:1033C000811911240C94C6190E94A31970F3959FBA
:1033D000C1F3950F50E0551F629FF001729FBB270C
:1033E000F00DB11D639FAA27F00DB11DAA1F649FA8
:1033F0006627B00DA11D661F829F2227B00DA11D5B
:10340000621F739FB00DA11D621F839FA00D611DE0
:10341000221F749F3327A00D611D231F849F600D01
:10342000211D822F762F6A2F11249F5750409AF02A
:10343000F1F088234AF0EE0FFF1FBB1F661F771FB6
:10344000881F91505040A9F79E3F510580F00C9481
:103450007B190C94C6195F3FE4F3983ED4F386952C
:1034600077956795B795F795E7959F5FC1F7FE2B21
:10347000880F911D9695879597F90895F894FFCF39
:103480000000B44303FF9FFF25FF0DFF99FF49FF95
:1034900041FF1FFF01FF09FF11FFC1FF63FF85FF10
:0434A00061FF71FF58
:00000001FF
